:020000040001F9
:1090000058460020DD9301000794010009940100F7
:109010000B9401000D9401000F940100000000006A
:10902000000000000000000000000000119401009A
:109030001394010000000000159401001794010032
:10904000BD9C010019940100F1B8010019940100C0
:1090500019940100000000002198010091A6010070
:109060001994010019940100199401001994010048
:109070001994010019940100199401001994010038
:10908000F9BE0100119D010019940100199401001D
:109090001994010019940100E9A801001994010034
:1090A0001994010019940100000000000000000064
:1090B0001994010019940100000000000000000054
:1090C00000000000000000000000000000000000A0
:1090D0000000000000000000000000000000000090
:1090E0000000000000000000000000000000000080
:1090F0000000000000000000000000000000000070
:10910000000000000000000000000000000000005F
:10911000000000000000000000000000000000004F
:10912000000000000000000000000000000000003F
:10913000000000000000000000000000000000002F
:10914000000000000000000000000000000000001F
:10915000000000000000000000000000000000000F
:1091600000000000000000000000000000000000FF
:1091700000000000000000000000000000000000EF
:1091800000000000000000000000000000000000DF
:1091900000000000000000000000000000000000CF
:1091A00000000000000000000000000000000000BF
:1091B00000000000000000000000000000000000AF
:1091C000000000000000000000000000000000009F
:1091D000000000000000000000000000000000008F
:1091E000000000000000000000000000000000007F
:1091F000000000000000000000000000000000006F
:10920000DFF80CD000F0CEF900480047C904020096
:109210005846002030B450E8012F93B2C48923444B
:109220008489A34228BF1B1B0489A34202BFBFF34A
:109230002F8F002007E0C3EA020340E80134002C2E
:10924000E9D14FF001000A6030BC704750E8012FAF
:10925000C2EA024240E801210029F7D1704730B448
:1092600050E8022F1FFAA2F3C488A34202BFBFF343
:109270002F8F00200DE0C48923448489A34228BF96
:109280001B1BC2EA034340E80234002CE8D14FF034
:1092900001000A6030BC704750E8022FC2EA224247
:1092A00040E802210029F7D17047034653E8022F16
:1092B000D988B2EB324F4FF0000017BF92B241EAAB
:1092C000014142EA014104E05A68B2EB324F08BF63
:1092D000012043E80212002AE8D1704730B4044666
:1092E00054E8000F0D4644E80053002BF8D11560F8
:1092F00030BC704730B4044654E8000F40EA010522
:1093000044E80053002BF7D1156030BC704730B4EF
:10931000044654E8000F00EA010544E80053002B1E
:10932000F7D1156030BC704730B4044654E8000FE4
:1093300080EA010544E80053002BF7D1156030BCEA
:10934000704730B4044654E8000F00EB010544E8D0
:109350000053002BF7D1156030BC704730B4044681
:1093600054E8000FA0EB010544E80053002BF7D1AF
:10937000156030BC704770B404464FF0000054E8EC
:10938000006F0D68AE4207BF44E80023012044E8A7
:1093900000630E60002B1CBF0020F0E770BC70471C
:1093A00030B4044654E8000F88422CBF451A0546E5
:1093B00044E80053002BF5D1156030BC7047000025
:1093C00000B583B002900091019244F20100714611
:1093D0006A4603F06BF803B000BD00000F48006858
:1093E0000F4909680A280AD1002908D10D480268E6
:1093F0006FF070031A404FF040031A4302600A48AE
:1094000080470A480047FEE7FEE7FEE7FEE7FEE783
:10941000FEE7FEE7FEE7FEE7FEE700003001001092
:1094200034010010E40E0040E5B601000192010095
:109430002DE9F05F0546002092469B468846064689
:10944000814640241BE0284641464746224600F01C
:1094500099F853465A46C01A914110D311461846FE
:10946000224600F047F82D1A67EB01084F462246C6
:109470000120002100F03EF817EB00094E41201EAC
:10948000A4F10104DFDC484631462A464346BDE8E4
:10949000F09F2DE9F0410024061B254671F10006DE
:1094A00005DA01240027D0EB070067EB0101161E47
:1094B00073F1000605DA0027D2EB0702012567EBFE
:1094C0000303FFF7B5FF86460E4617469C46AC429F
:1094D00004D00025D0EB050E65EB010624B1002079
:1094E000D2EB000760EB030C704631463A46634608
:1094F000BDE8F081202A04DB203A00FA02F10020C6
:1095000070479140C2F1200320FA03F319439040C1
:1095100070470000004870479C63020040EA010366
:109520009B0703D009E008C9121F08C0042AFAD219
:1095300003E011F8013B00F8013B521EF9D27047DD
:10954000D2B201E000F8012B491EFBD27047002285
:10955000F6E710B513460A4604461946FFF7F0FF32
:10956000204610BD421C10F8011B0029FBD1801AB7
:109570007047034611F8012B00F8012B002AF9D19E
:1095800018467047202A04DB203A21FA02F0002115
:10959000704721FA02F3D040C2F120029140084303
:1095A00019467047064C074D06E0E06840F001039D
:1095B00094E8070098471034AC42F6D3FFF724FE36
:1095C000D06A0200F06A020070B58C1810F8015BD6
:1095D00015F0070301D110F8013B2A1106D110F84C
:1095E000012B03E010F8016B01F8016B5B1EF9D150
:1095F0002B0705D40023521E0DD401F8013BFAE7D6
:1096000010F8013BCB1A921C03E013F8015B01F840
:10961000015B521EF9D5A142D8D3002070BD0000D5
:109620002DE9F04100F080FB4A4841684A484B4A26
:10963000127840F822104748816847481430474A5A
:10964000127840F822104348C16843482830434A02
:10965000127840F822103F4801693F483C303F4AA9
:10966000127840F82210012416E0002610E004EBE6
:1096700084003949143901EB800050F8260004EBCE
:109680008401374A02EB810141F82600701CC6B202
:10969000052EECDB601CC4B2042CE6DD2F480078FC
:1096A000401C2E49087008460078052801D100208A
:1096B000087001243DE0002637E000252FE004EB90
:1096C0008400274901EB800050F8251004EB84004A
:1096D000234A02EB8002681C52F8200081421CD908
:1096E00004EB84001E4901EB800050F8257004EB68
:1096F000840001EB8001681C51F8200004EB840118
:10970000174A02EB810141F8250004EB8400114661
:1097100001EB8001681C41F82070681CC5B2C6F1DD
:109720000400A842CBDC701CC6B2042EC5DB601C52
:10973000C4B2042CBFDD0A48C0690A494860084821
:10974000006B88600648406CC8600548806D086101
:10975000BDE8F081B4300020743100204C2300209B
:10976000FC300020B02F00202DE9F04101210846F7
:1097700002F0C6F80446C4F30745C4F30726E7B26F
:109780002946262001F0B4F83146252001F0B0F832
:109790003946242001F0ACF80121022002F0B0F893
:1097A0000446C4F30745C4F30726E7B22946292037
:1097B00001F09EF83146282001F09AF8394627201A
:1097C00001F096F80121032002F09AF80446C4F350
:1097D0000745C4F30726E7B229462C2001F088F894
:1097E00031462B2001F084F839462A2001F080F818
:1097F0000121042002F084F80446C4F30745C4F3B1
:109800000726E7B229462F2001F072F831462E20B4
:1098100001F06EF839462D2001F06AF8BDE8F081BC
:109820002DE9F84F0026002000904FF480770125A5
:10983000002410E0384607F0E1FF40B100BF2548A2
:109840000068284018B1384607F0CAFF2E436D0063
:10985000381D87B2641C082CECD34FF4BE7007F09F
:10986000CDFF50B14FF4BE7007F0BAFF46F000468E
:109870006A460121002007F021FFF0B210B3012554
:1098800000241DE005EA0600C0B100BF124850F8F0
:109890002400C0F30420814600BF0F4850F8240084
:1098A000C0F301408246204604F096F88046B8F1A5
:1098B000000F02D051464846C04700BF6D00641CEF
:1098C000082CDFD306F0004010B168460AF050FBC8
:1098D000BDE8F88F046300401065004010B5072014
:1098E00007F0C7FE072007F04EFF0021192007F000
:1098F000B3FE00211B2007F0AFFE1A2007F0B9FECF
:109900001C2007F0B6FE142007F0B3FE122007F06B
:10991000B0FE0120034908700846007801F066FE99
:1099200010BD0000CA22002000B58221022000F0F4
:10993000DFFFFF21012000F0DBFFFF21002000F00E
:10994000D7FF8221052000F0D3FFFF21042000F083
:10995000CFFFFF21032000F0CBFF8221082000F081
:10996000C7FFFF21072000F0C3FFFF21062000F002
:10997000BFFF82210B2000F0BBFFFF210A2000F077
:10998000B7FFFF21092000F0B3FF7821122000F07B
:10999000AFFFFF21112000F0ABFFFF21102000F0EE
:1099A000A7FF6E21352000F0A3FFFF21342000F037
:1099B0009FFFFF21332000F09BFF6421392000F03E
:1099C00097FFFF21382000F093FFFF21372000F0A0
:1099D0008FFF5A213D2000F08BFFFF213C2000F03B
:1099E00087FFFF213B2000F083FF5021412000F042
:1099F0007FFFFF21402000F07BFFFF213F2000F090
:109A000077FF7821152000F073FFFF21142000F06C
:109A10006FFFFF21132000F06BFF6E21462000F046
:109A200067FFFF21452000F063FFFF21442000F085
:109A30005FFF64214A2000F05BFFFF21492000F016
:109A400057FFFF21482000F053FF5A214E2000F01D
:109A50004FFFFF214D2000F04BFFFF214C2000F075
:109A600047FF5021522000F043FFFF21512000F01A
:109A70003FFFFF21502000F03BFF7821182000F02D
:109A800037FFFF21172000F033FFFF21162000F0E1
:109A90002FFF6E21572000F02BFFFF21562000F0F2
:109AA00027FFFF21552000F023FF64215B2000F0F9
:109AB0001FFFFF215A2000F01BFFFF21592000F05B
:109AC00017FF5A215F2000F013FFFF215E2000F0F6
:109AD0000FFFFF215D2000F00BFF5021632000F0FD
:109AE00007FFFF21622000F003FFFF21612000F04B
:109AF000FFFE78211B2000F0FBFEFF211A2000F062
:109B0000F7FEFF21192000F0F3FE6E21682000F01F
:109B1000EFFEFF21672000F0EBFEFF21662000F042
:109B2000E7FE64216C2000F0E3FEFF216B2000F0D3
:109B3000DFFEFF216A2000F0DBFE5A21702000F0DA
:109B4000D7FEFF216F2000F0D3FEFF216E2000F032
:109B5000CFFE5021742000F0CBFEFF21732000F0D7
:109B6000C7FEFF21722000F0C3FE0A21202000F072
:109B7000BFFE1421322000F0BBFE1E21362000F073
:109B8000B7FE28213A2000F0B3FE32213E2000F03B
:109B9000AFFE0A21212000F0ABFE1421432000F08B
:109BA000A7FE1E21472000F0A3FE28214B2000F035
:109BB0009FFE32214F2000F09BFE0A21222000F060
:109BC00097FE1421542000F093FE1E21582000F02F
:109BD0008FFE28215C2000F08BFE3221602000F0F7
:109BE00087FE0A21232000F083FE1421652000F067
:109BF0007FFE1E21692000F07BFE28216D2000F0F1
:109C000077FE3221712000F073FE0021262000F043
:109C10006FFE0021252000F06BFE0021242000F0C3
:109C200067FE0021292000F063FE0021282000F0BB
:109C30005FFE0021272000F05BFE00212C2000F0B9
:109C400057FE00212B2000F053FE00212A2000F0B7
:109C50004FFE00212F2000F04BFE00212E2000F0AF
:109C600047FE00212D2000F043FE0021312000F0AE
:109C70003FFE0021422000F03BFE0021532000F077
:109C800037FE0021642000F033FE01211C2000F08B
:109C90002FFE01211D2000F02BFE01211E2000F0CF
:109CA00027FE01211F2000F023FE00BD014601F127
:109CB0000800014A105C7047682C002010B54FF472
:109CC000807007F05EF880B14FF4807007F062F8A2
:109CD000012007F069F80D48407930B901200B499F
:109CE000487108460168002088474FF4827007F0E9
:109CF00048F850B14FF4827007F04CF8022007F09A
:109D000053F8024801680120884710BD64230020F1
:109D100010B5034A1068034A1168884710BD000057
:109D2000CC230020C82300202DE9F041754800789D
:109D3000002873D10120734908701A2007F0E3FC52
:109D40001C2007F0E0FC00240025002710E0384626
:109D5000791CCFB264280BDD00276B496B4A891A46
:109D6000C908032242EA014069A107F0D1FF04E0DB
:109D7000192007F0F0FC0028E9D100BF002710E00F
:109D80003846791CCFB264280BDD00275E495F4A54
:109D9000891AC908032242EA014061A107F0B8FF0D
:109DA00004E01B2007F0D7FC0028E9D100BF002603
:109DB00019E01A2007F0F2FC1C2007F0EFFC640009
:109DC0006D001A2007F09FFC1C2007F09CFC192056
:109DD00007F0C1FC00B1641C1B2007F0BCFC00B103
:109DE0006D1C701CC6B21A2EE3DB1A2007F0D6FCDD
:109DF0001C2007F0D3FC24F07F4425F07F4584F439
:109E0000000485F400051A2007F07DFC1C2007F0F3
:109E10007AFC47480461856072E0FFE70020394919
:109E200008701A2007F06FFC1C2007F06CFC00245F
:109E30000025002710E03846791CCFB264280BDDDE
:109E400000273149314A891AC908032242EA0140F0
:109E500038A107F05DFF04E0192007F07CFC002822
:109E6000E9D100BF002710E03846791CCFB2642842
:109E70000BDD00272449254A891AC908032242EA32
:109E8000014030A107F044FF04E01B2007F063FC11
:109E90000028E9D100BF002619E01A2007F07EFC57
:109EA0001C2007F07BFC64006D001A2007F02BFCDF
:109EB0001C2007F028FC192007F04DFC00B1641CA1
:109EC0001B2007F048FC00B16D1C701CC6B2192E97
:109ED000E3DB1A2007F062FC1C2007F05FFC24F093
:109EE0007F4425F07F4584F4000485F400051A20A2
:109EF00007F009FC1C2007F006FC0D48C460456013
:109F0000BDE8F0814D230020706B0200006B020061
:109F10005265616434204572726F72210000000046
:109F20005265616432204572726F72210000000038
:109F3000B43000205265616433204572726F722123
:109F4000000000005265616431204572726F722119
:109F500000000000F0B5A1B00BF0F4FD0220FFF707
:109F6000A5FE8DF87D000120FFF7A0FE8DF875009D
:109F70000020FFF79BFE8DF86D000520FFF796FE91
:109F80008DF87E000420FFF791FE8DF87600032007
:109F9000FFF78CFE8DF86E000820FFF787FE8DF826
:109FA0007F000720FFF782FE8DF877000620FFF77D
:109FB0007DFE8DF86F000B20FFF778FE8DF8800096
:109FC0000A20FFF773FE8DF878000920FFF76EFE78
:109FD0008DF870001220FFF769FE8DF855001120F2
:109FE000FFF764FE8DF839001020FFF75FFE8DF853
:109FF0001D003520FFF75AFE14A988713420FFF7A1
:10A0000055FE0DA988713320FFF750FE8DF81E0014
:10A010003920FFF74BFE14A9C8713820FFF746FE20
:10A020000DA9C8713720FFF741FE8DF81F003D20B4
:10A03000FFF73CFE14A908723C20FFF737FE0DA97C
:10A0400008723B20FFF732FE06A908724120FFF795
:10A050002DFE14A948724020FFF728FE0DA9487272
:10A060003F20FFF723FE06A948721520FFF71EFECA
:10A070008DF85A001420FFF719FE8DF83E001320CA
:10A08000FFF714FE8DF822004620FFF70FFE14A9FB
:10A09000C8724520FFF70AFE0DA9C8724420FFF7D9
:10A0A00005FE06A9C8724A20FFF700FE14A908732E
:10A0B0004920FFF7FBFD0DA908734820FFF7F6FDC7
:10A0C00006A908734E20FFF7F1FD14A948734D202F
:10A0D000FFF7ECFD0DA948734C20FFF7E7FD06A93B
:10A0E00048735220FFF7E2FD14A988735120FFF74F
:10A0F000DDFD0DA988735020FFF7D8FD06A98873F0
:10A100001820FFF7D3FD8DF85F001720FFF7CEFD75
:10A110008DF843001620FFF7C9FD8DF82700572062
:10A12000FFF7C4FD14A908745620FFF7BFFD0DA961
:10A1300008745520FFF7BAFD06A908745B20FFF7E5
:10A14000B5FD14A948745A20FFF7B0FD0DA9487455
:10A150005920FFF7ABFD06A948745F20FFF7A6FD65
:10A1600014A988745E20FFF7A1FD0DA988745D20F5
:10A17000FFF79CFD06A988746320FFF797FD14A9DB
:10A18000C8746220FFF792FD0DA9C8746120FFF723
:10A190008DFD06A9C8741B20FFF788FD8DF86400AB
:10A1A0001A20FFF783FD8DF848001920FFF77EFD88
:10A1B0008DF82C006820FFF779FD14A948756720F9
:10A1C000FFF774FD0DA948756620FFF76FFD06A91E
:10A1D00048756C20FFF76AFD14A988756B20FFF79E
:10A1E00065FD0DA988756A20FFF760FD06A98875D1
:10A1F0007020FFF75BFD14A9C8756F20FFF756FDAF
:10A200000DA9C8756E20FFF751FD06A9C875742009
:10A21000FFF74CFD14A908767320FFF747FD0DA941
:10A2200008767220FFF742FD06A908762020FFF786
:10A230003DFDFE4948713220FFF738FDFB4988712A
:10A240003620FFF733FDF949C8713A20FFF72EFD9C
:10A25000F64908723E20FFF729FDF4494872212093
:10A26000FFF724FDF14988724320FFF71FFDEF49F6
:10A27000C8724720FFF71AFDEC4908734B20FFF71F
:10A2800015FDEA4948734F20FFF710FDE749887331
:10A290002220FFF70BFDE549C8735420FFF706FDA8
:10A2A000E24908745820FFF701FDE04948745C203A
:10A2B000FFF7FCFCDD4988746020FFF7F7FCDB4901
:10A2C000C8742320FFF7F2FCD84908756520FFF712
:10A2D000EDFCD64948756920FFF7E8FCD34988753D
:10A2E0006D20FFF7E3FCD149C8757120FFF7DEFC54
:10A2F000CE4908762620FFF7D9FC8DF811002520DD
:10A30000FFF7D4FC8DF809002420FFF7CFFC8DF86F
:10A3100001002920FFF7CAFC8DF812002820FFF762
:10A32000C5FC8DF80A002720FFF7C0FC8DF802005D
:10A330002C20FFF7BBFC8DF813002B20FFF7B6FC99
:10A340008DF80B002A20FFF7B1FC8DF803002F20B9
:10A35000FFF7ACFC8DF814002E20FFF7A7FC8DF85A
:10A360000C002D20FFF7A2FC8DF804003120FFF730
:10A370009DFCAF4948704220FFF798FCAC498870BB
:10A380005320FFF793FCAA49C8706420FFF78EFCA6
:10A39000A74908711C20FFF789FCA64948701D20B9
:10A3A000FFF784FCA34988701E20FFF77FFCA149BA
:10A3B000C8701F20FFF77AFC9E490871012460E1F4
:10A3C0001FAD2D5D2E041DAD2D5D06EB05251BAECD
:10A3D000365D3544984E46F8245004AD2D5D2E046C
:10A3E00002AD2D5D06EB05251DF804603544934E46
:10A3F00046F8245004EB840514AE755D2E0404EB7E
:10A4000084050DAF7D5D06EB052504EB840606AFE4
:10A41000BE5D354404EB8406894F47F8265004EBB3
:10A42000840514AE35446D782E0404EB84050DAF1D
:10A430003D446D7806EB052504EB840606AF3E44EB
:10A440007678354404EB84067D4F07EB860675600D
:10A4500004EB840514AE3544AD782E0404EB84057A
:10A460000DAF3D44AD7806EB052504EB840606AF41
:10A470003E44B678354404EB8406714F07EB8606FC
:10A48000B56004EB840514AE3544ED782E0404EB7E
:10A4900084050DAF3D44ED7806EB052504EB8406FD
:10A4A00006AF3E44F678354404EB8406644F07EB70
:10A4B0008606F56004EB840514AE35442D792E0430
:10A4C00004EB84050DAF3D442D7906EB052504EB27
:10A4D000840606AF3E443679354404EB8406584F73
:10A4E00007EB8606356104EB84053E4656F8255099
:10A4F00004EB8406534F47F8265004EB84054B4E7B
:10A50000755D04EB8406504FBD5504EB84054C4E3D
:10A5100006EB85056D6804EB84064A4F07EB86065B
:10A52000756004EB8405414E35446D7804EB840678
:10A53000454F3E44757004EB8405414E06EB85059E
:10A54000AD6804EB84063F4F07EB8606B56004EB6D
:10A550008405364E3544AD7804EB84063A4F3E44CC
:10A56000B57004EB8405364E06EB8505ED6804EB0B
:10A570008406344F07EB8606F56004EB84052B4E0A
:10A580003544ED7804EB84062F4F3E44F57004EB20
:10A5900084052B4E06EB85052D6904EB8406294FB7
:10A5A00007EB8606356104EB8405204E35442D7992
:10A5B00004EB8406244F3E44357100215CE000200A
:10A5C00054E004EB8405204E35442E5C04EB8405F6
:10A5D0001D4F2F44451C7D5DAE4245DD04EB8405D7
:10A5E000184E06EB850555F8203004EB8405164E11
:10A5F00035442A5C04EB8405124E06EB8506451CA7
:10A6000056F8255004EB84060E4F07EB860646F8F5
:10A61000205004EB84050C4E2E44451C755D04EB64
:10A620008406094F3E44355410E00000C830002035
:10A630004223002047230020D82F0020C42F0020D1
:10A64000EC2F002050300020E130002004EB840586
:10A650000E4E06EB8506451C46F8253004EB8405B6
:10A660003E462E44451C7255451CE8B2C1F1040516
:10A670008542A6DC4D1CE9B20429A0DB601CC0B2F7
:10A680000446042C7FF79CAE21B0F0BD5030002072
:10A69000FEB54FF4827007F007FE002837D04FF464
:10A6A000827007F00BFE6C4890F82E0018B16A48D3
:10A6B00090F82F0058B300208DF8000066484068DD
:10A6C000019065480189ADF80810C06818B90020EC
:10A6D0006149087412E06048008B5F49488308466E
:10A6E000C06848600846008B08810020C8600846A2
:10A6F00090F82E0010B9002007F0F8FD56480168C8
:10A70000684688470020544981F82F0000BF52480E
:10A7100090F82E00002852D04FF4807007F0C4FD4E
:10A7200000284CD04FF4807007F0C8FD4A48408B99
:10A73000494991F82D10884216DD4748408B46491B
:10A7400091F82D10401A444948830A4612890B4655
:10A750005B8BD21A0B465B6803EB42000A4692F809
:10A760002D1007F08DFD23E03B48408B3A4991F8CE
:10A770002D1088420FD13848C06860B10120364999
:10A7800081F82F00002048830A4692F82D10D068E7
:10A7900007F076FD0CE03048408B2F4991F82D10E2
:10A7A000884205D101202C4981F82F0000204883E0
:10A7B0004FF4827007F082FD042007F097FD4FF4FC
:10A7C000887007F071FD70B14FF4887007F076FD66
:10A7D00000202149087402208DF800000846016815
:10A7E0006846884700BF4FF48A7007F05DFD38B1B6
:10A7F0004FF48A7007F062FD0020174908742AE0C0
:10A800001548456924E0B5FA85F64FF00040F04060
:10A810008543B00000F58C74204607F045FDB8B1C3
:10A82000204607F04BFD01208DF80000A4F58C7048
:10A83000C0F3C7008DF80400A4F58C70012121EA53
:10A8400090018DF80510044801686846884700BFEC
:10A85000002DD8D100BFFEBD5433002010B501F04B
:10A860006BFB10BD2DE9F047074688461646C246E9
:10A8700007EB47011B4800EBC109D9F8140020B1D0
:10A88000012811D0022826D11EE0484601F08CFB99
:10A890000546B54201D2002405E034463246514611
:10A8A000484601F0C8FB18E0484601F07DFB05462C
:10A8B000B54201D2284600E03046044622465146C1
:10A8C000484601F0B8FB08E032465146484601F0E0
:10A8D00079FB044601E0002400BF00BF2046BDE82C
:10A8E000F0870000E83B002010B507F04DFF10BDD9
:10A8F0004FF06B32064B5A606423054A936000F1B7
:10A900000802034B1B1D995401221B1F1A7070472C
:10A91000642C002003B590B000212620FFF7E8FF4B
:10A9200000212520FFF7E4FF00212420FFF7E0FFAE
:10A9300000212920FFF7DCFF00212820FFF7D8FFA6
:10A9400000212720FFF7D4FF00212C20FFF7D0FFA4
:10A9500000212B20FFF7CCFF00212A20FFF7C8FFA2
:10A9600000212F20FFF7C4FF00212E20FFF7C0FF9A
:10A9700000212D20FFF7BCFF119800287ED1FE4951
:10A98000109851F8200001900198C0F307410EAAD9
:10A99000109811540198C0F307210CAA1098115473
:10A9A0000198C1B20AAA109811541098012817D121
:10A9B0000EA91098085C014600900220FFF798FF4E
:10A9C0000CA91098085C014600900120FFF790FF49
:10A9D0000AA91098085C014600900020FFF788FF44
:10A9E0001098022817D10EA91098085C0146009013
:10A9F0000520FFF77DFF0CA91098085C0146009028
:10AA00000420FFF775FF0AA91098085C0146009022
:10AA10000320FFF76DFF1098032817D10EA9109897
:10AA2000085C014600900820FFF762FF0CA910980F
:10AA3000085C014600900720FFF75AFF0AA910980A
:10AA4000085C014600900620FFF752FF109804288A
:10AA500019D10EA91098085C014600900B20FFF751
:10AA600047FF0CA91098085C014600900A20FFF7E8
:10AA70003FFF0AA91098085C014600E003E000903F
:10AA80000920FFF735FF119800287CD0BA491098AB
:10AA900051F8200001900198C0F3074108AA1098CE
:10AAA00011540198C0F3072106AA10981154019877
:10AAB000C1B204AA1098115402AADDE91010505432
:10AAC000109800EB8000AD49095C1198814203D1D8
:10AAD0000021AB4A10981154109800EB8000A74950
:10AAE000084441781198814203D10121A44A109869
:10AAF0001154109800EB8000A04908448178119807
:10AB0000814203D102219E4A10981154109800EB03
:10AB100080009A490844C1781198814203D10321E9
:10AB2000974A10981154109800EB800093490844FC
:10AB300001791198814203D10421914A109811544E
:10AB40001098012862D18E491098085C00285ED1C7
:10AB500001213120FFF7CCFE0198A0F51C501038E0
:10AB600088494968884225D908A91098085C014697
:10AB700000901220FFF7BCFE06A91098085C014661
:10AB80000090112000E074E3FFF7B2FE04A91098D2
:10AB9000085C014600901020FFF7AAFE02A9109859
:10ABA000085C014600902020FFF7A2FE00211C2037
:10ABB000FFF79EFE7348416842F2107201981044FC
:10ABC000814223D908A91098085C01460090122000
:10ABD000FFF78EFE06A91098085C01460090112030
:10ABE000FFF786FE04A91098085C0146009010202B
:10ABF000FFF77EFE02A91098085C01460090202015
:10AC0000FFF776FE01211C20FFF772FEA6E05C49EB
:10AC10001098085C012824D102213120FFF768FE3A
:10AC200008A91098085C014600903520FFF760FEE7
:10AC300006A91098085C014600903420FFF758FEE2
:10AC400004A91098085C014600903320FFF750FEDD
:10AC500002A91098085C014600903220FFF748FED8
:10AC60007CE047491098085C022824D10321312058
:10AC7000FFF73EFE08A91098085C014600903920B5
:10AC8000FFF736FE06A91098085C014600903820B0
:10AC9000FFF72EFE04A91098085C014600903720AB
:10ACA000FFF726FE02A91098085C014600903620A6
:10ACB000FFF71EFE52E032491098085C032824D1A9
:10ACC00004213120FFF714FE08A91098085C014602
:10ACD00000903D20FFF70CFE06A91098085C014685
:10ACE00000903C20FFF704FE04A91098085C014680
:10ACF00000903B20FFF7FCFD02A91098085C01467C
:10AD000000903A20FFF7F4FD28E01D491098085CF8
:10AD1000042823D100213120FFF7EAFD08A910986B
:10AD2000085C014600904120FFF7E2FD06A910985B
:10AD3000085C014600904020FFF7DAFD04A9109856
:10AD4000085C014600903F20FFF7D2FD02A9109851
:10AD5000085C014600903E20FFF7CAFD10980228CB
:10AD600069D107491098085C002865D1012142206B
:10AD7000FFF7BEFD019807E0B02F0020C83000208B
:10AD800042230020D82F0020A0F51C501038FE4987
:10AD90008968884223D908A91098085C0146009068
:10ADA0001520FFF7A5FD06A91098085C0146009044
:10ADB0001420FFF79DFD04A91098085C014600903F
:10ADC0001320FFF795FD02A91098085C014600903A
:10ADD0002120FFF78DFD00211D20FFF789FDEA48A6
:10ADE000816842F2107201981044814223D908A967
:10ADF0001098085C014600901520FFF779FD06A920
:10AE00001098085C014600901420FFF771FD04A91A
:10AE10001098085C014600901320FFF769FD02A915
:10AE20001098085C014600902120FFF761FD012188
:10AE30001D20FFF75DFDA6E0D4491098085C0128AD
:10AE400024D102214220FFF753FD08A91098085C85
:10AE5000014600904620FFF74BFD06A91098085CBC
:10AE6000014600904520FFF743FD04A91098085CB7
:10AE7000014600904420FFF73BFD02A91098085CB2
:10AE8000014600904320FFF733FD7CE0BF49109856
:10AE9000085C022824D103214220FFF729FD08A9DC
:10AEA0001098085C014600904A20FFF721FD06A992
:10AEB0001098085C014600904920FFF719FD04A98D
:10AEC0001098085C014600904820FFF711FD02A988
:10AED0001098085C014600904720FFF709FD52E0FA
:10AEE000AA491098085C032824D104214220FFF7C6
:10AEF000FFFC08A91098085C014600904E20FFF75F
:10AF0000F7FC06A91098085C014600904D20FFF759
:10AF1000EFFC04A91098085C014600904C20FFF754
:10AF2000E7FC02A91098085C014600904B20FFF74F
:10AF3000DFFC28E095491098085C042823D1002103
:10AF40004220FFF7D5FC08A91098085C0146009044
:10AF50005220FFF7CDFC06A91098085C014600902E
:10AF60005120FFF7C5FC04A91098085C0146009029
:10AF70005020FFF7BDFC02A91098085C0146009024
:10AF80004F20FFF7B5FC1098032860D17F49109837
:10AF9000085C00285CD101215320FFF7A9FC01982F
:10AFA000A0F51C5010387849C968884223D908A9EF
:10AFB0001098085C014600901820FFF799FC06A93C
:10AFC0001098085C014600901720FFF791FC04A937
:10AFD0001098085C014600901620FFF789FC02A932
:10AFE0001098085C014600902220FFF781FC0021A8
:10AFF0001E20FFF77DFC6448C16842F21072019880
:10B000001044814223D908A91098085C0146009099
:10B010001820FFF76DFC06A91098085C0146009007
:10B020001720FFF765FC04A91098085C0146009002
:10B030001620FFF75DFC02A91098085C01460090FD
:10B040002220FFF755FC01211E20FFF751FCABE049
:10B050004E491098085C012824D102215320FFF7A3
:10B0600047FC08A91098085C014600905720FFF79C
:10B070003FFC06A91098085C014600905620FFF797
:10B0800037FC04A91098085C014600905520FFF792
:10B090002FFC02A91098085C014600905420FFF78D
:10B0A00027FC81E039491098085C022824D103214B
:10B0B0005320FFF71DFC08A91098085C014600907A
:10B0C0005B20FFF715FC06A91098085C014600906C
:10B0D0005A20FFF70DFC04A91098085C0146009067
:10B0E0005920FFF705FC02A91098085C0146009062
:10B0F0005820FFF7FDFB57E024491098085C03280F
:10B1000024D104215320FFF7F3FB08A91098085C11
:10B11000014600905F20FFF7EBFB06A91098085C42
:10B12000014600905E20FFF7E3FB04A91098085C3D
:10B13000014600905D20FFF7DBFB02A91098085C38
:10B14000014600905C20FFF7D3FB2DE00F491098DB
:10B15000085C042828D100215320FFF7C9FB08A967
:10B160001098085C014600906320FFF7C1FB06A918
:10B170001098085C014600906220FFF7B9FB04A913
:10B180001098085C014603E0D82F002042230020DD
:10B1900000906120FFF7ACFB02A91098085C014603
:10B1A00000906020FFF7A4FB1098042861D1864925
:10B1B0001098085CF0BB01216420FFF799FB01980F
:10B1C000A0F51C50103881490969884223D908A983
:10B1D0001098085C014600901B20FFF789FB06A928
:10B1E0001098085C014600901A20FFF781FB04A923
:10B1F0001098085C014600901920FFF779FB02A91E
:10B200001098085C014600902320FFF771FB002195
:10B210001F20FFF76DFB6D48016942F21072019823
:10B220001044814225D908A91098085C0146009075
:10B230001B2000E01EE0FFF75BFB06A91098085CEE
:10B24000014600901A20FFF753FB04A91098085CF0
:10B25000014600901920FFF74BFB02A91098085CEB
:10B26000014600902320FFF743FB01211F20FFF739
:10B270003FFBA6E054491098085C012824D1022124
:10B280006420FFF735FB08A91098085C0146009080
:10B290006820FFF72DFB06A91098085C0146009076
:10B2A0006720FFF725FB04A91098085C0146009071
:10B2B0006620FFF71DFB02A91098085C014600906C
:10B2C0006520FFF715FB7CE03F491098085C0228D9
:10B2D00024D103216420FFF70BFB08A91098085C18
:10B2E000014600906C20FFF703FB06A91098085C4C
:10B2F000014600906B20FFF7FBFA04A91098085C48
:10B30000014600906A20FFF7F3FA02A91098085C42
:10B31000014600906920FFF7EBFA52E02A491098A5
:10B32000085C032824D104216420FFF7E1FA08A96E
:10B330001098085C014600907020FFF7D9FA06A922
:10B340001098085C014600906F20FFF7D1FA04A91D
:10B350001098085C014600906E20FFF7C9FA02A918
:10B360001098085C014600906D20FFF7C1FA28E0B4
:10B3700015491098085C042823D100216420FFF7A8
:10B38000B7FA08A91098085C014600907420FFF7EE
:10B39000AFFA06A91098085C014600907320FFF7E9
:10B3A000A7FA04A91098085C014600907220FFF7E4
:10B3B0009FFA02A91098085C014600907120FFF7DF
:10B3C00097FA12B000BD000042230020D82F0020C1
:10B3D0001FB57DA207CA01AB07C39DF80B0030382B
:10B3E0004FF47A7110FB01F19DF80C00303800EB3E
:10B3F000C00202EB001001EB80019DF80D00303817
:10B4000000EB800001EB40019DF80E00303808444D
:10B41000704908809DF804004A2809D19DF805006C
:10B42000612805D19DF806006E2801D101204880D1
:10B430009DF8040046280AD19DF80500652806D12C
:10B440009DF80600622802D10220624948809DF8DA
:10B4500004004D280AD19DF80500612806D19DF809
:10B460000600722802D103205A4948809DF8040042
:10B4700041280AD19DF80500702806D19DF80600E4
:10B48000722802D10420534948809DF804004D28B9
:10B490000AD19DF80500612806D19DF8060079289B
:10B4A00002D105204B4948809DF804004A280AD162
:10B4B0009DF80500752806D19DF806006E2802D17A
:10B4C0000620444948809DF804004A280AD19DF886
:10B4D0000500752806D19DF806006C2802D10720CA
:10B4E0003C4948809DF8040041280AD19DF8050098
:10B4F000752806D19DF80600672802D10820354935
:10B5000048809DF8040053280AD19DF8050065285D
:10B5100006D19DF80600702802D109202D494880E7
:10B520009DF804004F280AD19DF80500632806D134
:10B530009DF80600742802D10A20264948809DF80B
:10B5400004004E280AD19DF805006F2806D19DF809
:10B550000600762802D10B201E4948809DF8040081
:10B5600044280AD19DF80500652806D19DF80600FB
:10B57000632802D10C20174948809DF80800302824
:10B580000CDD9DF8090030389DF80810303901EBCA
:10B59000810100EB41000F49888004E09DF809001B
:10B5A00030380C4988800B4880880A4900904B88C5
:10B5B0000A880949094C091BC908032444EA0140C7
:10B5C00007A106F0CBFB1FBD41707220323820323C
:10B5D000303233001C230020706B0200006B02002D
:10B5E00025642D25642D25640000000010B5044657
:10B5F00084B935480078012806D1142006F0C3F834
:10B60000122006F0C0F805E0122006F071F81420B0
:10B6100006F06EF8012C1ED12B480078012806D1C7
:10B62000142006F0B0F8122006F0ADF813E0274819
:10B63000007830B9122006F0A6F8142006F058F869
:10B6400009E022480078012805D1142006F09BF873
:10B65000122006F04DF8022C01D0032C32D11A48EA
:10B66000007801281AD11A480078012809D114203D
:10B6700006F089F8122006F086F8002014490870B8
:10B6800020E013480078E8B9142006F031F81220C1
:10B6900006F02EF801200E49087013E00B480078E0
:10B6A00030B9122006F085F8142006F021F809E0E0
:10B6B00006480078012805D1142006F07AF81220F7
:10B6C00006F016F810BD0000CD220020D022002088
:10B6D000CE22002001480249086070470048E80176
:10B6E0008C24002010B505F093F828B16A48006852
:10B6F000C0F342306949086005F0A0F848B1002065
:10B70000674908604FF08041C1F810016349091F83
:10B71000086005F0A9F8002855D062480068624921
:10B7200008606048001D0068091D08605D48083019
:10B730000068091D08605B480C300068091D08603E
:10B74000584810300068091D0860564814300068D9
:10B75000091D0860534818300068534920310860BB
:10B7600050481C300068091D08604E4820300068B1
:10B77000091D08604B4824300068091D08604948CD
:10B7800028300068091D086046482C300068091DF3
:10B7900008604448303000684349403108604148FF
:10B7A00034300068091D08603E4838300068091DC3
:10B7B00008603C483C300068091D0860394840304A
:10B7C0000068091D086004F0F5FF10B1FB2037493F
:10B7D000086004F0F1FF40B13548006800F0010056
:10B7E00018B16FF001003249086004F0FBFF28B186
:10B7F0003048006840F00F002E4908602E4800686D
:10B8000000F0004030B92C48001D006800F00040F6
:10B8100000283ED001202949086000BF2848006860
:10B820000028FBD015202449086000BF2448006888
:10B830000028FBD015212048001D016000BF2048D2
:10B8400000680028FBD000201C49086000BF1C488D
:10B8500000680028FBD000BF00BF00BF00BF00BFD2
:10B86000BFF34F8F00BF00BF00BF1648006800F451
:10B87000E06015490843001D1249086000BF00BF81
:10B8800000BFBFF34F8F00BF00BF00BF00BF00BFAE
:10B89000FDE7FFF71FFF10BD440200103C0500400C
:10B8A0000C0100400404001020C5004018F50040C1
:10B8B00000040040E40E00400012001004E50140C6
:10B8C00000E401400CED00E00000FA0501460A2901
:10B8D00003DA01F13000C0B270470A2905DB1029F4
:10B8E00003DA01F13700C0B2F6E73020F4E70000D8
:10B8F00010B502490868804710BD00006C23002085
:10B900002DE9F84F04468946FE4850F82450002699
:10B91000FD48005D01284CD004EB8400FB4901EB9D
:10B920008000C068281A76F1000043DB04EB840134
:10B93000F64800EB8100006904EB8401F34A02EB56
:10B940008101C968401A009004EB8400F049084462
:10B95000007904EB8401EE4A1144C978411ACB17EF
:10B9600004EB8400E94A02EB8000C068B5EB000AF2
:10B9700066F100024FF0640CB346AAFB0C0E02FB0A
:10B980000CE20AFB0B2CA1FB007A03FB00A001FBDD
:10B990000C015B463846009AFDF77BFD04EB840200
:10B9A000DB4B1A44D278642312FB03F2851841EB77
:10B9B000E27612E104EB8400D44901EB8000806858
:10B9C000281A76F1000043DB04EB840001EB8000D1
:10B9D000C06804EB8401CD4A02EB81018968401AFA
:10B9E000009004EB8400CA490844C07804EB840149
:10B9F000C74A11448978421AD31704EB8400C3491B
:10BA000001EB80008168B5EB010C66F100004FF09E
:10BA1000640A4FF0000BACFB0A1E00FB0AE00CFBB3
:10BA20000B00A2FB017A03FB01A102FB00115B46A4
:10BA30003846009AFDF72DFD04EB8402B44B1A44FE
:10BA40009278642312FB03F2851841EBE276C4E09E
:10BA500004EB8400AD4901EB80004068281A76F1C0
:10BA6000000044DB04EB8401A84800EB81008068FF
:10BA700004EB8401A54A02EB81014968401A009059
:10BA800004EB8400A2490844807804EB8401A04AB6
:10BA900011444978411ACB1704EB84009B4A02EB0E
:10BAA00080004268B5EB020C66F1000A4FF0640BAF
:10BAB0000022ACFB0B0E0AFB0BEA0CFB02A2844635
:10BAC000A1FB0C7A03FB0CA301FB023100233846D7
:10BAD000009AFDF7DEFC04EB84028D4B1A44527889
:10BAE000642312FB03F2851841EBE27675E004EB68
:10BAF0008400864951F82000281A76F100003FDBC7
:10BB000004EB840001EB8000406804EB84017F4A71
:10BB100052F82110401A009004EB84007C4908443C
:10BB2000407804EB84017A4A515C411ACB1704EB4C
:10BB30008400764A52F82000B5EB000A66F1000254
:10BB40004FF0640C4FF0000BAAFB0C0E02FB0CE252
:10BB50000AFB0B22A1FB007A03FB00A001FB020100
:10BB60005B463846009AFDF794FC04EB8402684B70
:10BB70009A5C642312FB03F2851841EBE2762CE019
:10BB800004EB8400614951F82000624951F8241007
:10BB9000A0EB010C5F4850F82400281A66F100025F
:10BBA0004FF0640A0023A0FB0A1B02FB0AB200FB51
:10BBB000032A04EB8400564A105CC2170B46514618
:10BBC000A3FB007B01FB00B003FB020162460023E4
:10BBD0003846FDF75EFC05460E464B48005D0128E1
:10BBE0004CD104EB8400494901EB8000C06800217E
:10BBF000401BB14143DB04EB8401444800EB81006E
:10BC0000C06804EB8401414A02EB81010969401AD2
:10BC1000009004EB84003E490844C07804EB8401A2
:10BC20003B4A11440979411ACB1704EB8400374A87
:10BC300002EB8000C068B5EB000C66F100026420E6
:10BC40004FF0000BACFB00AE02FB00E00CFB0B0264
:10BC5000A1FB0A7C03FB0AC301FB02315B463846A9
:10BC6000009AFDF716FC04EB8402294B1A44D278A3
:10BC7000642312FB03F2851841EBE2761EE104EB2C
:10BC80008400224901EB800081680020491BB041FB
:10BC900050DB04EB84001D4901EB8000806804EB5D
:10BCA00084011A4A02EB8101C968401A009004EB32
:10BCB000840017490844807804EB8401144A114435
:10BCC000C978401AC31704EB8401104A02EB8101C2
:10BCD0008968B5EB010C66F100024FF0640A4FF081
:10BCE000000BACFB0A1E02FB0AE20CFB0B22A0FBC2
:10BCF000017A03FB01A100FB02115B463846009A62
:10BD00000AE00000B02F0020472300205030002020
:10BD1000E1300020D82F0020FDF7BBFB04EB8402AC
:10BD2000714B1A449278642312FB03F2851841EB9D
:10BD3000E276C3E004EB84006C4901EB80004168CB
:10BD40000020491BB04144DB04EB8400674901EB50
:10BD50008000406804EB8401644A02EB8101896839
:10BD6000401A009004EB84005F490844407804EBDB
:10BD700084015D4A11448978411ACB1704EB840091
:10BD80005A4A02EB80004068B5EB000C66F1000BEC
:10BD900064224FF0000AACFB020E0BFB02E20CFB2C
:10BDA0000A228446A1FB0C7A03FB0CA301FB02319F
:10BDB00000233846009AFDF76CFB04EB84024A4BE3
:10BDC0001A445278642312FB03F2851841EBE276A1
:10BDD00074E004EB8400454951F820100020491B11
:10BDE000B0413EDB04EB8400404951F8200004EBF5
:10BDF000840201EB82014968401A009004EB840040
:10BE00003949085C04EB8401374A11444978401AE7
:10BE1000C31704EB8401354A52F82110691A66F100
:10BE200000024FF0640C4FF0000BA1FB0CAE02FBC4
:10BE30000CE201FB0B21A0FB0A7C03FB0AC301FB04
:10BE400000315B463846009AFDF723FB04EB840281
:10BE5000254B9A5C642312FB03F2851841EBE276D2
:10BE60002CE0234850F8240004EB84011F4A52F8C8
:10BE70002110A0EB010C1E4850F824002B1A66F18B
:10BE800000014FF0640A0020A3FB0A2B01FB0AB15A
:10BE900003FB001304EB84001349085C40424FEAA3
:10BEA000E07AA2FB007B03FB00B002FB0A016246C2
:10BEB00000233846FDF7EDFA05460E46B9F1000FAE
:10BEC0000FD10C4850F82400281A76F1000004DB4A
:10BED000084850F824002D1A03E0064850F82400C2
:10BEE000451B2846BDE8F88FE13000205030002087
:10BEF000D82F0020C42F002008B500BF4FF4807059
:10BF00000B49405808B1012000E0002078B10948F1
:10BF10000068804700BF00204FF48071044A8850B9
:10BF2000084611464058009000BF00BF00BF08BD42
:10BF3000000001407823002010B5124C022020613F
:10BF4000606111A0A0611349E1614FF400712162A9
:10BF50000021A1626162E1620BA0A0640E49E1646C
:10BF6000102121650021A1656165E1650BA1E01D3E
:10BF7000FDF7FFFA0AA12046FDF7FBFA2020A07189
:10BF800010BD0000D03B00205465726D696E616C7D
:10BF900000000000483C0020483E0020525454005D
:10BFA000534547474552000010B501460A69CB6822
:10BFB0009A4204D88C68641EE41AA01801E0D41ACE
:10BFC000601E10BD2DE9F0470446894617464FF024
:10BFD000000AE56800BFD4F81080A84503D9A8EB93
:10BFE0000500461E04E0A5EB0800401CA1680E1ADF
:10BFF000A068401BB04201D9304601E0A068401B58
:10C000000646BE4201D2304600E038460646616828
:10C01000481932464946FDF781FAB244B144BF1B84
:10C020003544A068A84200D10025E560002FD2D198
:10C030005046BDE8F0872DE9F0470446894615468D
:10C04000E668A068871BAF4208D9616888192A464C
:10C050004946FDF763FA7019E06010E0B846616880
:10C06000881942464946FDF759FAA5EB070809EB3E
:10C07000070142466068FDF751FAC4F80C80BDE83C
:10C08000F087000000BF00BF00BFBFF34F8F00BFAD
:10C0900000BF00BF0948006800F4E0600849084399
:10C0A000001D0649086000BF00BF00BFBFF34F8FEF
:10C0B00000BF00BF00BF00BF00BFFDE70CED00E008
:10C0C0000000FA0502E008C8121F08C1002AFAD1D0
:10C0D00070477047002001E001C1121F002AFBD108
:10C0E000704700000146202908DA012088400A4AEA
:10C0F000104008B1012070470020FCE7402909DA10
:10C10000A1F12000012202FA00F008B10120F2E7BB
:10C110000020F0E70120EEE7FC06FFBD00BFEFF3D3
:10C120001081084672B67047014601F0030008B955
:10C13000012070470020FCE7024650680068401E5E
:10C14000084008B9012070470020FCE702460021A2
:10C1500004E0505C08B101207047491C0629F8D35F
:10C160000020F9E710B50346D868884206D8881839
:10C17000401E1C69A04201D8012010BD0020FCE730
:10C1800010B504466CB10848C068A04209D80648FA
:10C190000069A04205D3204603F093FA08B10120BC
:10C1A00010BD0020FCE700009024002070B504467C
:10C1B0000D4604F22740FFF7C9FF0646012D06D0C1
:10C1C000022D0DD0032D11D0042D19D113E0A0792B
:10C1D00028B194F8240010B90EB1012070BD00BF41
:10C1E000E07910B10EB10220F8E700BF207A08B163
:10C1F0000320F3E700BF607A08B10420EEE700BF38
:10C200000020EBE70146481C052290FBF2F302FBFD
:10C210001300C0B27047014691F82420012A01D1D1
:10C22000EE2000E01F20704730B59FB03C2110A8E1
:10C23000FDF78DF93C2101A8FDF789F902208DF861
:10C24000400000208DF8420006208DF843000120B8
:10C25000ADF814000A49069101AA10A9094800F096
:10C260001FFD044600BF25463DB100BF06A240F2B7
:10C270008F112846FDF7A4F800BF00BF1FB030BDE6
:10C280003C230020042800202E2E5C2E2E5C6170A2
:10C29000705C6465766963655F6E616D655C64653D
:10C2A000766963655F6E616D655F6F702E63000018
:10C2B00030B5ADB004202C90AC2101A8FDF747F9B2
:10C2C00002208DF8040000208DF806002CA80290B2
:10C2D00006208DF807000121ADF850101A4915917C
:10C2E00001218DF880104FF4A07123910021249139
:10C2F00016482A9001A9164800F038FD044600BFF0
:10C3000025463DB100BF13A240F2D3112846FDF7E8
:10C3100057F800BF00BF01210D4800F024FD0C4874
:10C3200090F854100422012077DF044600BF254610
:10C330003DB100BF07A24FF4EE712846FDF740F86B
:10C3400000BF00BF2DB030BD3C230020D133020020
:10C35000042800202E2E5C2E2E5C6170705C6465BB
:10C36000766963655F6E616D655C6465766963655A
:10C370005F6E616D655F6F702E63000070B50321A5
:10C38000084800F09EFD044600BF25463DB100BFB1
:10C3900005A24FF4F2712846FDF712F800BF00BF66
:10C3A00070BD0000042800202E2E5C2E2E5C6170D3
:10C3B000705C6465766963655F6E616D655C64651C
:10C3C000766963655F6E616D655F6F702E630000F7
:10C3D00010B5002407E00749096811F8340001216D
:10C3E00006F072FB641C044800788442F3D30020FA
:10C3F00010BD000080230020842300202DE9F84395
:10C4000006460D4617460A2F02D20720BDE8F883DC
:10C4100006F09EFC38B906F031FC044600BF204609
:10C4200000B1F3E700BF18480660184805701848C7
:10C43000076018480021016041608160C160164AB0
:10C440001160516015E006EBC508144800680090C3
:10C4500098F802008DF8010098F80000104A69462B
:10C4600006F088FB044600BF204600B1CEE700BFBF
:10C4700000BF281EA5F10101CDB2E4D1094A002177
:10C48000094800F063F9C1E78023002084230020DD
:10C4900088230020A8330020902300201060020091
:10C4A000F1F2010029DF01000C6002002DE9FE43DA
:10C4B00007460E46144672B600BF05F051FD00BF98
:10C4C00000BF05F097FA0028FBD100BF00BF012F85
:10C4D0000CD06FF48050384498B1B0F5405F2CD048
:10C4E0006FF440510844002847D115E03149324AE1
:10C4F000891AC908012242EA014030A105F008FC6E
:10C5000047E02C492C4A891AC908012242EA014015
:10C5100032A105F0FDFB3CE025462649DFF898C036
:10C52000A1EB0C01C9084FF0010C4CEA014034A109
:10C53000D5E9003205F002FC2BE02546A86806F09C
:10C540002DFA8046D5E900108DE8430019491A4BB1
:10C55000C91AC908012343EA014043462FA1AA682A
:10C5600005F026FC1349144A891AC908012242EA37
:10C57000014034A105F0CCFB0BE00E490E4A891AAC
:10C58000C908012242EA0140324633A105F0CAFB44
:10C5900000BF00BF00BF3648006800F0010000B1D6
:10C5A00000BE00BF22463146384600F063F8BDE8C1
:10C5B000FE830000706B0200006B0200534F465474
:10C5C0004445564943453A20415353455254494FF7
:10C5D0004E204641494C454400000000534F46540C
:10C5E0004445564943453A20494E56414C4944201A
:10C5F0004D454D4F52592041434345535300000090
:10C60000415353455254494F4E204641494C4544AD
:10C610002061742025733A25750000004552524F61
:10C6200052202575205B25735D2061742025733AA7
:10C6300025750D0A50432061743A20307825303832
:10C6400078000000456E64206F66206572726F721C
:10C65000207265706F727400554E4B4E4F574E20CE
:10C660004641554C542061742030782530385800AC
:10C67000F0ED00E018B5012300939DF800301E4B4B
:10C68000186059609A606FF48043034463B1012BD2
:10C6900019D1194BDA60DB681B68174CA36123467C
:10C6A000DB685B68E3610EE0134B1A611B699B68F2
:10C6B000114C636123461B691B68A36123461B69F8
:10C6C0005B68E36100BF00BF0B4B1B680A4B5B68F4
:10C6D000094B9B68084BDB68074B1B69064B5B6982
:10C6E000054B9B69044BDB6972B600BF9DF80030B7
:10C6F000002BFBD162B618BD2C34002070B5044667
:10C700000D46204602F076FA28B12946204602F06E
:10C7100065FA002070BD0520FCE770B504460D46A3
:10C72000204602F067FAA188884205D829462046AB
:10C7300002F06EFA002070BD0420FCE710B502483C
:10C7400001F022FD10BD00009823002010B5034623
:10C750000C460AB9072010BD19684A61012C01D1A5
:10C76000012000E0002008610020F4E738B51348FC
:10C77000006800900823582211491248006804F00C
:10C7800094F804460CB1204638BD0F4A69460F485C
:10C7900001F000FD04460CB12046F5E701210B48ED
:10C7A00001F09EFD01230A4A1946084801F0BEFC2B
:10C7B0000120084908702046E6E7000024600200D6
:10C7C000B83300201460020087470200982300203D
:10C7D000FFFF7F00A42300202DE9F04106460D460F
:10C7E00017463446207F10B10020BDE8F081A761D4
:10C7F00002F060FD401941F10001C4E90201206925
:10C8000000B125612146002008F082FDEDE770B5FA
:10C8100004462546002028772946012008F078FDA7
:10C8200070BD00002DE9F041054629461448FFF788
:10C8300074FF064606BB134C002720781249085C9B
:10C8400020B1201D06F00EFD074608E020780E49B5
:10C85000085C20B904F10C0006F092FC074600BF0A
:10C8600057B90A490648FFF749FF28B90122074985
:10C87000044804F0E1FA06463046BDE8F0810000C5
:10C8800068340020D423002060230020EC23002003
:10C8900010B50446204608F0F5F810BD70B5044602
:10C8A00025460E488068B0B1ADB9FFF737FC0646A3
:10C8B0000A4800680A490860084840684FF0E021CB
:10C8C000C1F804010020054988601EB900BF62B6A6
:10C8D00000BF00BF00BF00BF70BD00004C3400208F
:10C8E00000E100E0F8B505460C4617462088001D1B
:10C8F000B84201D90C20F8BD684679DF064600BF72
:10C90000304600B1F7E700BF032021886854208833
:10C91000401C20801920218868542088401C2080D9
:10C9200020884119BDF8000008F0F4FE2188084471
:10C9300020800020DFE70000002114E00C48D0F840
:10C940001024012308E000BFD0680079884201D19B
:10C95000002303E0D0680268002AF4D100BF0BB1C5
:10C9600008467047491C0A29E8DB4FF0FF30F8E71A
:10C97000B03700202DE9F04104460F46154615B9A1
:10C980000E20BDE8F0810020286000BF0CB90E2009
:10C99000F7E700BF00BF206808B90E20F1E700BF2D
:10C9A00000BFE088C11700EB91718910A0EB8101F5
:10C9B00009B10720E5E700BF384600F08BFBC6B29F
:10C9C000142E01D10520DCE72079B04201DC0420DF
:10C9D000D7E7E188206806FB010028600020D0E747
:10C9E00010B58CB001208DF808004FF4A0700590B0
:10C9F000002006908DF8040001A90A4800F03AFAD8
:10CA00000321084800F05DFA04460749074A891ADD
:10CA1000C908032242EA0140224605A105F082F935
:10CA20000CB010BD04280020706B0200006B0200E7
:10CA3000424C452041647620537461727421256410
:10CA40000000000010B58CB001208DF808004FF4F4
:10CA5000A07005900020069001208DF8040001A927
:10CA60000C4800F007FA0B4991F8540074DF0021DC
:10CA7000084800F026FA04460749084A891AC908F6
:10CA8000032242EA0140224605A105F04BF90CB011
:10CA900010BD000004280020706B0200006B020033
:10CAA000424C45204164762053746F702125640008
:10CAB0002DE9FC41054688461646002437880020AB
:10CAC000308095F82D0058B13A463146404600F086
:10CAD00019FB044600BF204608B1BDE8FC8100BF39
:10CAE000A87850B13A4631464046FFF7FBFE04466F
:10CAF00000BF204600B1F0E700BFE87860B1E978F8
:10CB000048B23B463246414602F079F9044600BF3E
:10CB1000204600B1E1E700BF686868B1696891F933
:10CB200000003B463246414608F0BFFC044600BFC9
:10CB3000204600B1D1E700BF288900280EDD43461A
:10CB40000622022105F10800CDE9006708F0C4FEC5
:10CB5000044600BF204600B1BFE700BF288A002876
:10CB60000EDD43460722032105F11000CDE90067E1
:10CB700008F0B2FE044600BF204600B1ADE700BF9A
:10CB8000288B00280EDD43461522142105F11800DC
:10CB9000CDE9006708F0A0FE044600BF204600B1C2
:10CBA0009BE700BF286A58B13B4632464146286A97
:10CBB00001F0E2F8044600BF204600B18DE700BF57
:10CBC000686A58B13B4632464146686A03F0B8FC91
:10CBD000044600BF204600B17FE700BF95F82C0057
:10CBE00000280BDD3B4632464146284608F05EF8F9
:10CBF000044600BF204600B16FE700BF287858B157
:10CC00003B4632464146284603F070FD044600BFCD
:10CC1000204600B161E700BF20465EE7F8B5044654
:10CC20000E461546002000902B466A4631462046A7
:10CC300000F008F807460FB90020F8BDBDF8000065
:10CC40002044FAE7F0B504460D461E4604B10AB981
:10CC50000020F0BD002103E0605C401C084481B26C
:10CC6000481CA84206DA10888842F5DC481C205C83
:10CC7000B042F1D1A94201DB0020EAE7881C87B26B
:10CC8000605C10B1605C401E00E0002083B213B114
:10CC9000F818A84201DD0020DBE717801846D8E726
:10CCA0002DE9FF4104460D46164600BF1CB90E2073
:10CCB00004B0BDE8F08100BF207808B90820F7E78C
:10CCC00015B90EB90E20F3E70020009001900290F4
:10CCD0000390DDB1D4F82004016804F155008142CD
:10CCE00000D001E004F2431000902046FFF793FAD1
:10CCF000ADF8040001AA28460099FFF7D9FE0746BF
:10CD000000BF384600B1D3E700BF00BFDEB1D4F8A2
:10CD10002004816804F23120814200D001E004F255
:10CD20001F3002902046FFF776FAADF80C0003AAF8
:10CD300030460299FFF7BCFE074600BF384600B1F7
:10CD4000B6E700BF00BF04F580609DE88E0010309C
:10CD50008EC01038C4F82004002204F15400D4F826
:10CD6000201472DFA4E780F83010704770B50446D5
:10CD70000D4605B10CB90E2070BD05F1780000F02C
:10CD80009CFF08B90720F7E70020A0702C2205F1CE
:10CD90007801201DFCF7C2FB002084F83000D5F894
:10CDA000A4006063D5F8A800A0634FF6FF70A4F854
:10CDB000240404F58260C4F82004002140F22C40D1
:10CDC000C4F82614A4F82A140155207810B9FF20BD
:10CDD00084F8540004F15500C4F810042046FFF70D
:10CDE0001AFA40F21441085304F2144204F15501B6
:10CDF0002846FFF75DFE064600BF304600B1BBE7A0
:10CE000000BF04F231204FF4836108512046FFF740
:10CE100002FAA4F81C044FF48360015904F21C4286
:10CE200005F13C00FFF744FE064600BF304600B166
:10CE3000A2E700BF012151200155208B81B248207B
:10CE40000153012084F83C00002121645020015549
:10CE50006169616404F13C02002104F1540072DF55
:10CE6000064600BF304600B186E700BF01202070B3
:10CE7000304681E770B504460D462C222946201D18
:10CE8000FCF74CFB70BD70B504460D462E4620885D
:10CE9000102804D0112807D026280FD109E02146F8
:10CEA000304606F0A5FB0AE02146304606F015FCA8
:10CEB00005E02146304606F0A4FD00E000BF00BFBB
:10CEC00070BD70B504460E46207808B9082070BDC4
:10CED000A670002140F22C40C4F82614A4F82A14AD
:10CEE0000155A07910B1A078012809D0E07910B1DE
:10CEF000A078012804D0E07970B1A07802280BD185
:10CF0000606B30B1012084F82D040820616B8847E4
:10CF100002E0002084F82D0431462046FFF746F950
:10CF2000A070606BA0B1A078032802D0A07804287C
:10CF30000ED1607960B194F82E0448B9002084F8CD
:10CF40003004012084F82F040720616B884702E039
:10CF5000002084F82F04182104F13C00FCF7F7FAB4
:10CF6000012084F83C0004F12C0006F0B5FF20B14C
:10CF700094F82C105120015502E001215120015557
:10CF800094F8240060B104F1280006F0A5FF20B158
:10CF900094F828105220015502E001215220015539
:10CFA000002150200155A078052824D2DFE800F0A8
:10CFB0001F030A11180004F13C01204607F012FF7C
:10CFC000054619E004F13C01204607F0F9FE05464C
:10CFD00012E004F13C01204607F016FF05460BE085
:10CFE00004F13C01204607F036FF054604E000202E
:10CFF00084F8310000E000BF00BFA07898B104F1D0
:10D000003C0204F15400D4F8201472DF05460DB13F
:10D0100028465CE794F8301094F8540073DF054616
:10D020000DB1284653E7606B18B194F83100616B7D
:10D03000884700204BE700002DE9F041044600BF7F
:10D0400014B90E20BDE8F08100BF1C2221461C4807
:10D05000FCF764FA1B481A490860206860B1206830
:10D060007ADF05460DB12846ECE7164821680A68C4
:10D0700002604968416005E012487BDF05460DB15A
:10D080002846DFE7002617E006EB86000E4901EB95
:10D09000800700BF4FF6FF70388000BF0B4800EBE1
:10D0A000461078600A4A0021381DFFF74FFB0546FD
:10D0B0000DB10320C6E7761C002EE5D00020C1E7A5
:10D0C000FC31002050230020E8310020C83100202E
:10D0D000FD57020010B50446204600F005F808B1DF
:10D0E000204610BD1420FCE710B50446142C01DBCB
:10D0F000002010BD2146024803F032FCF9E7000091
:10D100001C3200202DE9FC4105460C4617462088BC
:10D110000930B84202D90C20BDE8FC8168466DDFB9
:10D12000064600BF304600B1F6E700BF0820218860
:10D1300068542088401C20801B2021886854208847
:10D14000401C208020882844DDF801100160BDF8D3
:10D15000051081802088801D20809DF800004008F7
:10D1600018B900202188685402E001202188685401
:10D170002088401C20800020CEE70000F8B505463E
:10D180000F460024284600F0B1F92888212879D0DC
:10D1900006DC102835D0112809D013286FD184E07F
:10D1A0003B286DD052286CD05628F7D1B0E04FF60E
:10D1B000FF705E4908802A7A5D495E4BC91AC9082A
:10D1C000032343EA01405CA104F0ACFD624800780F
:10D1D000022806D101206049087008460078FEF751
:10D1E00005FA5349534A891AC908032242EA014001
:10D1F0005AA104F08DFD00205C4908705C4908705C
:10D2000092E04B494B4A891AC908032242EA01407D
:10D2100058A104F07DFD01205A49087000205349AF
:10D2200008705349087002204B490870A8883F498C
:10D23000088008460188544803F03CFD044600BFBE
:10D2400026463EB100BF51A24FF458713046FCF75C
:10D25000B7F800BF00BF042234480188032077DFFD
:10D26000044600BF26463EB100BF48A240F26531E9
:10D270003046FCF7A5F800BF00BF55E002E052E0E1
:10D280003BE026E000200090A88869468FDF044636
:10D2900000BF26463EB100BF3CA24FF45C71304651
:10D2A000FCF78EF800BF00BF3EE000231A46852140
:10D2B0001E4800887FDF044600BF26463EB100BFFF
:10D2C00032A240F276313046FCF77AF800BF00BF58
:10D2D00000BF00231A46194614480088B1DF0446EF
:10D2E00000BF26463EB100BF28A240F27A31304648
:10D2F000FCF766F800BF00BF16E00D490D4A891A19
:10D30000C908032242EA014025A104F001FD0BE017
:10D310000749084A891AC908032242EA014024A1A0
:10D3200004F0F6FC00E000BF00BFF8BD18230020A9
:10D33000706B0200006B0200446973636F6E6E6570
:10D34000637465642E20726561736F6E3A20307865
:10D350002530347800000000CA220020424C4520CD
:10D36000427265616B65642100000000D3220020D9
:10D37000D5220020424C4520436F6E6E6563746574
:10D3800064210000E4220020C42400202E2E5C2E04
:10D390002E5C6170705C6D61696E2E630000000030
:10D3A00047415454432054696D656F757400000003
:10D3B00047415454532054696D656F7574000000E3
:10D3C00070B504460D462088102806D0112808D0D4
:10D3D00012280ED0502810D107E0204606F066F83B
:10D3E0000CE0204606F060F908E0204606F03AFB23
:10D3F00004E0204606F042F800E000BF00BF70BD28
:10D400002DE9F04104460F46A6882088102806D052
:10D41000112819D019283FD01A284AD118E007F04E
:10D4200069F9304606F0EAFF30B900BF22A2F021C8
:10D430000420FBF7C5FF06E0E07B022803D131465C
:10D44000294803F09CFA34E0304607F077F930E0E1
:10D45000207A0509042D01DB012000E000200246AE
:10D46000314621480C3001F0BBFC032D01DB0120CB
:10D4700000E00020024631461B48083001F0B0FCB5
:10D48000022D01DB012000E0002002463146164853
:10D49000001D01F0A5FC0CE0207A48B9607AC0F3C9
:10D4A000C0052A46314610480C3001F099FC00BFF7
:10D4B00000BF00BFBDE8F0812E2E5C2E2E5C636F96
:10D4C0006D706F6E656E74735C626C655C636F6DBE
:10D4D0006D6F6E5C626C655F636F6E6E5F737461BF
:10D4E00074652E63000000002432002070B50546EC
:10D4F000AC1D6088B0F5285F17D12888502814D15A
:10D50000628904F10C010948FCF708F84FF05A3021
:10D5100006490C394860618904480C388160FEF77F
:10D5200083FE012001490C39087070BD442C002095
:10D5300070B50446204608F0E7F8054605F00100FE
:10D5400070BD000038B505F0DDF8044600BF254683
:10D550003DB100BF15A240F28D312846FBF730FFE8
:10D5600000BF00BF002000906946012004F0D0FEFB
:10D57000044600BF25463DB100BF0CA240F29231E7
:10D580002846FBF71DFF00BF00BF684604F08AFF76
:10D59000044600BF25463DB100BF04A240F29531CC
:10D5A0002846FBF70DFF00BF00BF38BD2E2E5C2EB6
:10D5B0002E5C6170705C6D61696E2E63000000000E
:10D5C0002DE9F04186B00446884617461D4600BF47
:10D5D0001CB90E2006B0BDE8F08100BF01AA2946A3
:10D5E0006069FFF7C7F9064600BF304600B1F1E7B2
:10D5F00000BF4FF6FF70854201D0019808B90520A1
:10D60000E8E70198007808B90820E3E73888F428AB
:10D6100001DD0720DEE700200290039004900590D2
:10D62000A088ADF80800CDF81480049701208DF88B
:10D630000A0002A92846AEDFCCE7000070B58EB024
:10D6400004460E463E4B0FCB09AD0FC500BF14B9C3
:10D650000E200EB070BD00BF00BF0EB90E20F8E75F
:10D6600000BF3068A061214609A862DF054600BFFF
:10D67000284600B1EDE700BF20788DF83600012084
:10D68000ADF83400A21C0DA9A8DF054600BF28464E
:10D6900000B1DEE700BF202101A8FBF758FF022000
:10D6A000ADF8040020788DF80600F420ADF80800ED
:10D6B0000120ADF80A008DF810009DF8110020F04F
:10D6C000080008308DF811009DF8110020F00400CA
:10D6D000001D8DF8110001208DF815008DF8160041
:10D6E000608804F10C0201A900F0C4F905460DB1EF
:10D6F0002846AEE7202101A8FBF729FF0320ADF85B
:10D70000040020788DF80600F420ADF80800012010
:10D71000ADF80A008DF810009DF8110020F01000FF
:10D7200010308DF8110001208DF815008DF81600CD
:10D730008DF817006088221D01A900F09BF988E789
:10D74000085F020070B504460D4605B104B970BD0E
:10D750002E462088102804D0502807D057280FD1F3
:10D7600009E02146304605F0D9FE0AE02146304660
:10D7700006F0A4F905E02146304606F06DF800E019
:10D7800000BF00BF00BFE2E72DE9FC4704460D469D
:10D790001646A71C4FF001080020019001A8FFF7D2
:10D7A00077F83048406828602E4840682D498968DD
:10D7B000411A2D480068401CA0EB010915E0012129
:10D7C0002A4803F000F901F0D1FF8246514627486C
:10D7D00003F0F9F82348406822498968411A224831
:10D7E0000068401CA0EB010900BF4F45E7D8B8F125
:10D7F000000F30D00021009176B1009921F0030193
:10D80000491C0091009921F00401091D0091009923
:10D8100064F3891100910DE0009921F00301891C46
:10D820000091009921F00401091D0091009964F311
:10D830009F5100910B4949680B4A12681140094AEF
:10D840000C3202EB810000990160064949683944B5
:10D850000C3A516000BF9DF80400FFF71FF84046E6
:10D86000BDE8FC87B037002044240020CC3B0020DA
:10D8700070B504460D460A2D03D10D212046FFF751
:10D88000F7FFA168481CA06020684554D4E9011046
:10D89000884202D3204603F006FB70BD044880682E
:10D8A00003494968884201D1012070470020FCE704
:10D8B000B037002070B505460C461D2D2DD1012C2A
:10D8C0002BD11648007880B91548007804280CD16F
:10D8D00001201249087008460078FDF787FEFFF71F
:10D8E0007FF800200F49088017E00C4800780028D6
:10D8F00013DD0B48007804280FD100200749087079
:10D9000008460078FDF772FE13210748008876DF8D
:10D91000FFF798F8072003F0EBFE70BDCA22002045
:10D92000CB220020E2220020182300200246002102
:10D9300008E0074B1B6803EBC1000378934200D15A
:10D940007047491C034800788142F2DB0020F7E76A
:10D95000802300208423002070B540F2333203215D
:10D960000F48FEF74BFD044600BF25463DB100BF02
:10D970000CA240F2F1312846FBF722FD00BF00BFA8
:10D98000FEF726FD044600BF25463DB100BF05A2B7
:10D990004FF47D712846FBF713FD00BF00BF70BD3B
:10D9A000242300202E2E5C2E2E5C6170705C6D6135
:10D9B000696E2E63000000004FF0FF31054A42F807
:10D9C0002010082804DBFF23A0F108015032535433
:10D9D00070470000A83200200146024850F821009C
:10D9E00070470000A83200202DE9F04F03460C4696
:10D9F0004FF0FF390AB1002000E0082084460AB148
:10DA0000082000E00C208046614624E0154850F8CC
:10DA10002100401CF0B91D460846274616464FFA1D
:10DA200080FBDFF840A00AF1300A0AF805B0DFF801
:10DA300034A04AF820704EB94FFA85FBA0F1080ACD
:10DA4000DFF820E00EF1500E0EF80AB000BF4FFADA
:10DA500081F902E0491C4145D8D300BF4846BDE8E2
:10DA6000F08F0000A8320020014601484056704760
:10DA7000D832002070B590B006460C461546A07806
:10DA800018B901208DF80E0002E0A0788DF80E0084
:10DA90002088ADF80C0000200290607C02A907F0FD
:10DAA00001FAA07C0DF1090107F0FCF9E07B08B157
:10DAB000012000E000209DF80A1060F3C3018DF8FA
:10DAC0000A10207C08B1012000E000209DF80A1017
:10DAD00060F304118DF80A10207B08B1012000E0EA
:10DAE00000209DF80A1060F300018DF80A10207DD7
:10DAF00008B1022000E001209DF80A1060F3420105
:10DB00008DF80A101C2109A8FBF721FD607BC0F3EA
:10DB1000001018B9607BC0F34010F8B100200090ED
:10DB2000E07C0DF1010107F0BDF900BF9DF8000098
:10DB300020F00F00401C8DF800009DF8000020F040
:10DB4000F00010308DF8000000BF9DF8020020F0BA
:10DB50000600801C8DF80200CDF838D0607B8DF86F
:10DB60002400A07B8DF82500142104A8FBF7EFFC0E
:10DB700003A8049002A80590A088ADF81C00A06836
:10DB800020B1E088ADF81800A0680890A0690028CE
:10DB900049D000200190A0690088ADF82C00A06950
:10DBA0004088ADF82E00A06940680A9001A80D9049
:10DBB000A169087B01A907F075F9A169487B0DF1FE
:10DBC000050107F06FF9A069807A08B1012000E033
:10DBD00000209DF8061060F3C3018DF80610A069BF
:10DBE000C07A08B1012000E000209DF8061060F323
:10DBF00004118DF80610A069007A08B1012000E038
:10DC000000209DF8061060F300018DF80610A06951
:10DC1000807B08B1022000E001209DF8061060F32F
:10DC200042018DF80610E06908B1E0690C902B46BE
:10DC300004AA09A93046AADF10B070BD70B5054628
:10DC40000DB9094C01E0084C083409E0204601F008
:10DC500040FD064606B904E028467168884700BFC3
:10DC6000F4E700BF70BD00009C32002010B50446F0
:10DC70002CB90120064948700020FFF7DFFF012C76
:10DC800004D1012002498870FFF7D8FF10BD0000C1
:10DC9000943200202DE9F047024613468C46D3E922
:10DCA0000245DCE90267B6EB040877EB050002D316
:10DCB0000120BDE8F0870020FBE7014688780128B5
:10DCC00005D191F82000012801D100207047886A11
:10DCD000042802D0486A042801D10020F6E7012078
:10DCE000F4E733B58BB00546002000900C9878B16E
:10DCF00000240BE021460CA802F032FE28B1009A65
:10DD0000501C009001A820F81240641C142CF1D380
:10DD10002C2269462846FBF701FC0DB030BD0146B8
:10DD20000888062808DB0888B0F5486F06DD0888F3
:10DD30004FF6FF72904201D00720704748880628AE
:10DD400008DB4888B0F5486F06DD48884FF6FF725B
:10DD5000904201D00720F0E708884FF6FF7290420A
:10DD600008D04888904205D008884A88904201DD52
:10DD70000720E2E70020E0E72DE9F04107460D46E5
:10DD8000144698462088801D404502D90C20BDE8E5
:10DD9000F0813846FFF7C3FF064600BF304600B1AA
:10DDA000F5E700BF0520218868542088401C2080AA
:10DDB0001220218868542088401C20802288511914
:10DDC000388807F0A7FC2188084420802288511950
:10DDD000788807F09FFC2188084420800020D6E73F
:10DDE0000549064A891AC908032242EA014004A1EA
:10DDF00003F08EFFFEF746F9706B0200006B020025
:10DE000041707020526573657420330030B587B05F
:10DE10001C216846FBF79BFB002000904FF4A030CC
:10DE200001904FF4F020029003208DF80C000020A8
:10DE3000ADF80E008DF810000A4805900A480690CB
:10DE40006846FFF7F9F8044600BF25463DB100BF1C
:10DE500006A240F23F312846FBF7B2FA00BF00BFEE
:10DE600007B030BD49340200E1DD01002E2E5C2EEA
:10DE70002E5C6170705C6D61696E2E630000000045
:10DE8000F8B505460C46607A88B9207A10B9104872
:10DE9000476801E00E4887682A4639466068FEF701
:10DEA0009BFC064616B1304606F0A0FE0EE00020B0
:10DEB00020720748406948B101208DF80000ADF894
:10DEC0000250034841696846884700BFF8BD00001A
:10DED000FC31002070B506460D4616B14FF40640E1
:10DEE00070BD287920B1012809D0022815D111E090
:10DEF00002202871284606F0DFFA044610E0284682
:10DF000000F090FE044648F20960844201D141F6D7
:10DF10001D5405E041F61D5402E048F20E6400BFB6
:10DF200000BF2046DCE700002DE9F04180460024D8
:10DF300014E01248006800EBC405287804F094FE51
:10DF400007466878012800D100E00020784080F082
:10DF500001062878314600F035FB641C084800783B
:10DF60008442E6DB0748D0E90010002359405840BE
:10DF7000014301D007F0ECF9BDE8F08180230020D7
:10DF8000842300209023002070B5184800780128D1
:10DF90001ED116484078002826D101201349487028
:10DFA00000F0D8FB044600BF25463DB100BF10A2DB
:10DFB0004FF4F8712846FBF703FA00BF00BF07F0E3
:10DFC0001DFD0020094908700120134908700BE06D
:10DFD00011480078012807D10448407820B900F0A2
:10DFE000DBFC00200C49087070BD000040230020BD
:10DFF0002E2E5C2E2E5C6170705C646576696365A4
:10E000005F6E616D655C6465766963655F6E616DA9
:10E01000655F6F702E630000382C002038B500BF9C
:10E020009DF8000020F00F00401C00909DF80000BB
:10E0300020F0F0001030009000BF00F00DFEF8B9A5
:10E040001A484068B0F15A3F17D11848008982B287
:10E0500016490C3168467CDF044600BF25463DB1B9
:10E0600000BF13A24FF4AA712846FBF7A9F900BF1D
:10E0700000BF01200D49487002E000200B494870A4
:10E080000A48407880B90A2213A168467CDF04461A
:10E0900000BF25463DB100BF05A240F25D112846F4
:10E0A000FBF78EF900BF00BF38BD0000382C002000
:10E0B0002E2E5C2E2E5C6170705C646576696365E3
:10E0C0005F6E616D655C6465766963655F6E616DE9
:10E0D000655F6F702E63000057616C6B65725F4601
:10E0E0005541000010B50021034802F0A3FC04468E
:10E0F00084F3100010BD0000CC3B002070B5054635
:10E100000C464FF4803000FA04F1284600F040FA43
:10E1100070BD70B505460C464FF4A07000EB84004E
:10E1200086B23146284600F0C5FA70BD2DE9F047A9
:10E1300004460D4616461F464FF4803000FA05F897
:10E140004FF4A07000EB85001FFA80F926F07F469F
:10E150004146206804F08AF84146206804F080F8BF
:10E160004946206804F075F832462946206804F0D4
:10E1700067F84146206804F076F81FB141462068F0
:10E1800004F077F8BDE8F08710B50446206804F085
:10E190005CF810BD2DE9F04704460D46174660793E
:10E1A000324941F820706079314901EBC0000079B3
:10E1B00068B108262F49304A891AC908022242EA62
:10E1C00001402EA103F0A4FD3046BDE8F087298868
:10E1D0002068C0F8081500BF94F90420AB781046F9
:10E1E0001946002808DB4FEA417C4FEA1C68DFF83B
:10E1F000B0C00CF800800BE04FEA417C4FEA1C698C
:10E20000DFF8A0C000F00F08A8F104080CF808908F
:10E2100000BF00BF94F90410084600280DDB00BFC2
:10E2200000BF00F01F0301229A4043099B0003F145
:10E23000E023C3F8002100BF00BF00BF00BF0120E2
:10E2400061790B4A02EBC10108716079114641F80E
:10E25000304000260749084A891AC908032242EAC1
:10E26000014011A103F054FD3046AEE7C823002061
:10E27000CC230020506B0200006B0200525443205C
:10E28000696E7374616E636520616C726561647937
:10E2900020696E697469616C697A65642E0000009A
:10E2A00000E400E018ED00E05254433A20696E6942
:10E2B0007469616C697A65642E00000010B50146CE
:10E2C00091F90400002807DB00F01F0301229A40A7
:10E2D000024B440943F8242000BF10BD00E200E0D7
:10E2E00070B505460C4622460221284600F05CF92E
:10E2F00070BD10B504464FF48271204600F0DAF983
:10E3000010BD10B504460021206803F0B5FF10BD14
:10E3100010B504460421206803F0AEFF10BD2DE9BE
:10E32000F84F04468846154699464FF4803000FA67
:10E3300008FA4FF4A07000EB88001FFA80FB25F06C
:10E340007F455146204600F023F9206803F07DFF09
:10E3500006464146206803F06DFF00903246414674
:10E36000206803F06DFF5946206803F072FF3146C4
:10E37000009806F047FF012806D1102004F090FB1A
:10E380005946206803F065FF206803F05EFF0646EB
:10E390003146284606F036FF07465146206803F00E
:10E3A00062FF012F0FD16A1C4146206803F048FF2D
:10E3B000102004F075FB206803F047FFB04225D021
:10E3C0000D20BDE8F88F2A464146206803F038FF4B
:10E3D000206803F03AFF0646681E314606F012FF39
:10E3E00007466FF07F40A0EB0900B84201D20D2034
:10E3F000E7E75FB96A1C4146206803F021FF206807
:10E4000003F023FFB04201D00D20DAE7012251468C
:10E41000204600F0C9F80020D3E700002DE9F843BA
:10E4200005460E461746984669461048006802F0B1
:10E4300050FA044614B90420BDE8F8831C21204694
:10E44000FBF785F8012020712560C4F80880084892
:10E450000068B6FBF0F0E060676169460348006859
:10E4600002F061FA05F09AFF0020E5E71062020071
:10E470000462020010B50446D4E90321501828DFD5
:10E4800010BD0278072A38D2DFE802F037040712FD
:10E49000222B340000220A7030E001220A70038926
:10E4A0008B818388CB81C2688A6000230B7425E04E
:10E4B00002220A7003898B818388CB81C2688A60BB
:10E4C000827D062A01D1012300E000230B7415E0B0
:10E4D00003220A70C3888B810389CB81C2688A605A
:10E4E0000CE004220A70C3888B810023CB810022B8
:10E4F0008A6003E005220A7000E000BF00BF704799
:10E5000030B587B004460D462068806808B907B06A
:10E5100030BD182101A8FBF71AF80295A0680690F3
:10E52000207910B1012815D109E001208DF80400EF
:10E5300020690390E0680490606905900BE0022078
:10E540008DF804000749E068096848430390606952
:10E55000059000E000BF00BF2068816801A88847DF
:10E5600000BFD4E70462020070B50546002409E04C
:10E57000064850F8240020B1044850F824102846DA
:10E580008847641C042CF3D370BD0000283500209C
:10E5900070B504460D462946206803F061FE294601
:10E5A000206803F063FE70BD70B504460E46154644
:10E5B0003146206803F057FE1DB13146206803F054
:10E5C00058FE70BDF8B505460C46284606F042FDDB
:10E5D00005286AD2DFE800F003212A393F00DCB1C8
:10E5E0000121284606F046FD002000906846FEF70F
:10E5F0004FF92A460126002730463946FAF77AFFB6
:10E600002B4AD2E9003218431143294A03C29DF82C
:10E610000000FEF743F900BF47E00CB1022000E024
:10E6200000200146284606F025FD3EE044B10321C6
:10E63000284606F01FFD0121284607F03EF903E0B9
:10E640000121284606F016FD2FE01CB904212846BA
:10E6500006F010FD29E024B10321284606F00AFD4A
:10E6600022E00021284606F005FD0021284607F09B
:10E6700024F9002000906846FEF70AF92A46012690
:10E68000002730463946FAF735FF0A46C143D043E2
:10E69000074B0CCB11401840054AC2E900109DF809
:10E6A0000000FEF7FBF800BF00BF00BFF8BD000090
:10E6B0009023002070B505460C462868015929B101
:10E6C0002146286803F0C5FD012070BD0020FCE74D
:10E6D00010B50446207830B1012814D0022818D093
:10E6E000052822D11BE0606860B91149114A891AD6
:10E6F000C908032242EA01400FA103F009FB0020F0
:10E700001349487012E0606810B900201049487041
:10E710000CE0606810B900200D49487006E06068A0
:10E7200010B900200A49487000E000BF00BF10BDCA
:10E73000706B0200006B020046445320696E6974DE
:10E74000207375636365737366756C6C7921200043
:10E750004023002038B50E48007810B948F2016017
:10E7600038BD684605F006FD044614B948F2076056
:10E77000F6E706202070684605F00CFD0548007895
:10E7800010B101200349087305F016FE0020E7E7E9
:10E79000F8230020FC35002070B586B0142101A8B4
:10E7A000FAF7D5FE2E48007828B101A8FFF7DCFE65
:10E7B000002006B070BD2A48001D02F0FDF808B127
:10E7C0000020F6E700F076FB06460EB13046F0E793
:10E7D00005F00CFD05F0C8FA054625B1022D03D061
:10E7E000062D0ED103E000BF48F20A60E1E70120E8
:10E7F0001B4908700020486001A8FFF7B5FE002003
:10E80000D7E700BF00BF684605F0B4FC044614B962
:10E8100048F20760CDE7012020700C2D16D2DFE80A
:10E8200005F01506150715111512150A0E0B00BF78
:10E83000002020710BE000BF0320207107E00220C0
:10E84000207104E000BF0120207100E000BF00BF84
:10E85000684605F09FFC05F0AFFD0020A9E7000029
:10E86000F823002038B5044614B948F2046038BDD6
:10E870006946204605F03EFE08B3BDF8000000EBF7
:10E880008000114901EB8000C068A8B1A07A98B15E
:10E89000BDF8000000EB800001EB8000C068401E66
:10E8A000BDF8001001EB8101074A02EB8101C8604D
:10E8B0000020A072002504E048F2056501E048F25E
:10E8C00009652846D3E70000D43500207FB51446FB
:10E8D0001D462B46224601A9684605F0A3FD04B05B
:10E8E00070BD0000F8B504460D4604B115B948F2F4
:10E8F0000460F8BD6946204605F0FCFDA0B16668DD
:10E90000BDF8001001EB8101094A02EB810101F120
:10E910000C00012102F057F82E6060680C3068602E
:10E920000120A0720020E4E748F20960E1E700005E
:10E93000D435002070B504460D4614B948F2046081
:10E9400070BD032300222946204607F057F9F7E758
:10E9500070B504460D46022300222946204607F0E2
:10E960004DF970BD70B5054609480068042802D10C
:10E9700048F20B6409E007480549096840F821504E
:10E980000121034802F01FF80024204670BD00005A
:10E99000042400202835002030B585B000200290E6
:10E9A0000390049000900190009001906B4602AAA1
:10E9B00041F20101481EFFF789FF04462822294938
:10E9C0002948FAF7ABFD002C29D0012027494870CF
:10E9D000274902A8FFF7BCFF044648F206608442BC
:10E9E00005D1012021490870002048700CE000BFCB
:10E9F000254635B100BF1FA2BA212846FAF7E0FC30
:10EA000000BF00BF06F0FAFF2449254A891AC90849
:10EA1000032242EA014023A103F07AF91EE001201B
:10EA200012494870124902A8FFF784FF044648F2D1
:10EA30000660844205D101200C490870002048700E
:10EA40000CE000BF254635B100BF0AA2CB21284605
:10EA5000FAF7B6FC00BF00BF06F0D0FF002005B0FB
:10EA600030BD00003C2C0020F82D00204023002069
:10EA7000E05E02002E2E5C2E2E5C6170705C646580
:10EA8000766963655F6E616D655C64657669636513
:10EA90005F6E616D655F6F702E630000706B0200CA
:10EAA000006B0200777269746500000030B585B0B4
:10EAB000002002900390049000900190009001903B
:10EAC0006B4602AA42F20101481EFFF7FFFE044610
:10EAD0004FF4C8722D492E48FAF720FD002C29D09A
