:020000040001F9
:10900000D8410020DD93010007940100099401007C
:109010000B9401000D9401000F940100000000006A
:10902000000000000000000000000000119401009A
:109030001394010000000000159401001794010032
:10904000419901001994010021A601001994010021
:109050001994010000000000AD970100059C01007B
:109060001994010019940100199401001994010048
:109070001994010019940100199401001994010038
:10908000D1A90100959901001994010019940100DA
:1090900019940100199401005D9E010019940100CA
:1090A0001994010019940100000000000000000064
:1090B0001994010019940100000000000000000054
:1090C00000000000000000000000000000000000A0
:1090D0000000000000000000000000000000000090
:1090E0000000000000000000000000000000000080
:1090F0000000000000000000000000000000000070
:10910000000000000000000000000000000000005F
:10911000000000000000000000000000000000004F
:10912000000000000000000000000000000000003F
:10913000000000000000000000000000000000002F
:10914000000000000000000000000000000000001F
:10915000000000000000000000000000000000000F
:1091600000000000000000000000000000000000FF
:1091700000000000000000000000000000000000EF
:1091800000000000000000000000000000000000DF
:1091900000000000000000000000000000000000CF
:1091A00000000000000000000000000000000000BF
:1091B00000000000000000000000000000000000AF
:1091C000000000000000000000000000000000009F
:1091D000000000000000000000000000000000008F
:1091E000000000000000000000000000000000007F
:1091F000000000000000000000000000000000006F
:10920000DFF80CD000F02AFA00480047F9EC010022
:10921000D841002030B450E8012F93B2C4892344D0
:109220008489A34228BF1B1B0489A34202BFBFF34A
:109230002F8F002007E0C3EA020340E80134002C2E
:10924000E9D14FF001000A6030BC704750E8012FAF
:10925000C2EA024240E801210029F7D1704730B448
:1092600050E8022F1FFAA2F3C488A34202BFBFF343
:109270002F8F00200DE0C48923448489A34228BF96
:109280001B1BC2EA034340E80234002CE8D14FF034
:1092900001000A6030BC704750E8022FC2EA224247
:1092A00040E802210029F7D17047034653E8022F16
:1092B000D988B2EB324F4FF0000017BF92B241EAAB
:1092C000014142EA014104E05A68B2EB324F08BF63
:1092D000012043E80212002AE8D1704730B4044666
:1092E00054E8000F0D4644E80053002BF8D11560F8
:1092F00030BC704730B4044654E8000F40EA010522
:1093000044E80053002BF7D1156030BC704730B4EF
:10931000044654E8000F00EA010544E80053002B1E
:10932000F7D1156030BC704730B4044654E8000FE4
:1093300080EA010544E80053002BF7D1156030BCEA
:10934000704730B4044654E8000F00EB010544E8D0
:109350000053002BF7D1156030BC704730B4044681
:1093600054E8000FA0EB010544E80053002BF7D1AF
:10937000156030BC704770B404464FF0000054E8EC
:10938000006F0D68AE4207BF44E80023012044E8A7
:1093900000630E60002B1CBF0020F0E770BC70471C
:1093A00030B4044654E8000F88422CBF451A0546E5
:1093B00044E80053002BF5D1156030BC7047000025
:1093C00000B583B002900091019244F20100714611
:1093D0006A4601F0D7FD03B000BD00000F480068E9
:1093E0000F4909680A280AD1002908D10D480268E6
:1093F0006FF070031A404FF040031A4302600A48AE
:1094000080470A480047FEE7FEE7FEE7FEE7FEE783
:10941000FEE7FEE7FEE7FEE7FEE700003001001092
:1094200034010010E40E004015A401000192010077
:109430002DE9F05F0546002092469B468846064689
:10944000814640241BE0284641464746224600F01C
:10945000BEF853465A46C01A914110D311461846D9
:10946000224600F016F82D1A67EB01084F462246F7
:109470000120002100F00DF817EB00094E41201EDD
:10948000A4F10104DFDC484631462A464346BDE8E4
:10949000F09F202A04DB203A00FA02F100207047F6
:1094A0009140C2F1200320FA03F319439040704722
:1094B000004870476C4B020040EA01039B0703D051
:1094C00009E008C9121F08C0042AFAD203E011F803
:1094D000013B00F8013B521EF9D27047D2B201E0C5
:1094E00000F8012B491EFBD270470022F6E710B5A9
:1094F00013460A4604461946FFF7F0FF204610BD02
:10950000421C10F8011B0029FBD1801A704703464A
:1095100011F8012B00F8012B002AF9D118467047E9
:1095200030B480EA010202F0004530F0004221F040
:10953000004013D090B1C30DD40DC2F31601C0F397
:109540001600E41A41F4000140F400027D34914217
:1095500001D3641C00E04900002C02DA30BC00207A
:1095600070474FF400000023914201D3891A03434E
:1095700040084FEA4101F7D151B1914202D14FF079
:10958000004105E002D24FF0010101E06FF001015E
:1095900003EBC450284430BC00F029B896230022C5
:1095A000114600F02DB820F00040C10DC0F31600A8
:1095B00040F400007F2901DA00207047962903DC7F
:1095C000C1F19601C8407047963988407047202AFB
:1095D00004DB203A21FA02F00021704721FA02F35D
:1095E000D040C2F12002914008431946704700293B
:1095F000A8BF7047401C490008BF20F00100704719
:1096000010B4B0FA80FC00FA0CF050EA010404BF78
:1096100010BC704749B1CCF1200421FA04F411FACE
:109620000CF118BF012121430843A3EB0C01CB1D12
:109630004FEA00614FEA102042BF002010BC704783
:1096400000EBC35010440029A4BF10BC7047401C5D
:10965000490008BF20F0010010BC7047064C074DC0
:1096600006E0E06840F0010394E8070098471034F2
:10967000AC42F6D3FFF7C8FDA0520200C052020070
:1096800070B58C1810F8015B15F0070301D110F8C4
:10969000013B2A1106D110F8012B03E010F8016BF1
:1096A00001F8016B5B1EF9D12B0705D40023521E74
:1096B0000DD401F8013BFAE710F8013BCB1A921CDC
:1096C00003E013F8015B01F8015B521EF9D5A142DA
:1096D000D8D3002070BD000070B500F067F92249B2
:1096E000224A127841F82200002507E01E4850F86F
:1096F00025001F4941F82500681CC5B2052DF5DB82
:109700001A480078401C1949087008460078052856
:1097100001D10020087000251EE0002416E0144846
:1097200050F824100246601C52F8200081420BD9E8
:10973000104650F824600146601C51F8200041F8A2
:109740002400601C41F82060601CC4B2C5F1040014
:10975000A042E4DC681CC5B2042DDEDB044880684E
:109760000449086070BD0000342D00205323002000
:10977000202D0020402300202DE9F041012000F0A1
:1097800057FF0446C4F30745C4F30726E7B229464A
:109790001B2000F067FB31461A2000F063FB3946BE
:1097A000192000F05FFBBDE8F08100002DE9F84FC3
:1097B0000026002000904FF480770125002410E05F
:1097C000384606F027FC40B100BF25480068284015
:1097D00018B1384606F010FC2E436D00381D87B2D4
:1097E000641C082CECD34FF4BE7006F013FC50B18F
:1097F0004FF4BE7006F000FC46F000466A460121B8
:10980000002006F067FBF0B210B3012500241DE034
:1098100005EA0600C0B100BF124850F82400C0F3AA
:109820000420814600BF0F4850F82400C0F30140D7
:109830008246204602F03AFE8046B8F1000F02D080
:1098400051464846C04700BF6D00641C082CDFD35A
:1098500006F0004010B1684608F080FFBDE8F88FC0
:1098600004630040106500407CB5072006F00CFB47
:10987000072006F094FB19250024002000902346C1
:10988000024601460190284606F0D6FA00BF1A208B
:1098900006F0FAFA142006F0F7FA122006F0F4FAAD
:1098A000022006F0F1FA022006F02EFB0120034907
:1098B00008700846007800F031FD7CBDCA22002007
:1098C0002DE9F041FFF708FF18480468C4F3074585
:1098D000C4F30726E7B22946022000F0C3FA314656
:1098E000012000F0BFFA3946002000F0BBFAFF214A
:1098F000052000F0B7FAFF21042000F0B3FAFF21A1
:10990000032000F0AFFAFF21062000F0ABFA00219F
:109910001B2000F0A7FA00211A2000F0A3FA002172
:10992000192000F09FFABDE8F081000040230020DC
:10993000014601F10800014A105C7047602C0020CC
:1099400010B54FF4807005F034FE80B14FF4807094
:1099500005F038FE012005F03FFE0D48407930B992
:1099600001200B49487108460168002088474FF4E0
:10997000827005F01EFE50B14FF4827005F022FE99
:10998000022005F029FE024801680120884710BD29
:109990006823002010B5034A1068034A11688847FD
:1099A00010BD0000CC230020C823002070B51A2071
:1099B00006F0B5FA002412E03046711CCEB205283C
:1099C0000DDD00261849194A891AC908032242EAFE
:1099D000014017A106F0A8FD1848006870BD1920C5
:1099E00006F0C5FA0028E7D100250DE01A2006F0A0
:1099F000E1FA64001A2006F092FA192006F0B7FA8C
:109A000000B1641C681CC5B21A2DEFDB64081A2073
:109A100006F0D0FA24F07F4484F400041A2006F003
:109A20007EFA2046DAE7000040530200D0520200DE
:109A300052656164204572726F72210040230020DC
:109A40002DE9F84F0AF064FC0220FFF771FF07468A
:109A50000120FFF76DFF04460020FFF769FF8046F5
:109A60000520FFF765FF81460420FFF761FF0546EB
:109A70000320FFF75DFF82460620FFF759FF584994
:109A800008700720FFF754FF564908700C20FFF7B5
:109A90004FFF554948700B20FFF74AFF5349487064
:109AA0000A20FFF745FF524948700F20FFF740FF9B
:109AB0004D4988700E20FFF73BFF4C4988700D2000
:109AC000FFF736FF4A4988701220FFF731FF4649F9
:109AD000C8701120FFF72CFF4449C8701020FFF711
:109AE00027FF4349C8701520FFF722FF3E49087140
:109AF0001420FFF71DFF3D4908711320FFF718FFE1
:109B00003B4908711820FFF713FF374948721720A7
:109B1000FFF70EFF354948721620FFF709FF344959
:109B200048721B20FFF704FF83461A20FFF700FF4F
:109B300006461920FFF7FCFE00904FEA0B4000EBB1
:109B40000621009808442B490860380400EB0420E3
:109B50004044294908604FEA094000EB0520504481
:109B6000264908602048407801042048407801EBED
:109B700000201F4949780844214948601A488078E4
:109B800001041A48807801EB0020194989780844BB
:109B90001B4988601448C07801041448C07801EB60
:109BA00000201349C97808441549C8600E48007957
:109BB00001040E48007901EB00200D4909790844A1
:109BC0000F4908610848407A01040848407A01EBCF
:109BD00000200749497A084409494862BDE8F88FDE
:109BE0005123002050230020002D00200A2D0020AA
:109BF000142D002044230020482300204C23002063
:109C0000D82C0020FEB54FF4827006F043FF0028E8
:109C100037D04FF4827006F047FF6C4890F82E0062
:109C200018B16A4890F82F0058B300208DF8000052
:109C300066484068019065480189ADF80810C06821
:109C400018B900206149087412E06048008B5F4930
:109C500048830846C06848600846008B0881002099
:109C6000C860084690F82E0010B9002006F034FFB6
:109C700056480168684688470020544981F82F00FB
:109C800000BF524890F82E00002852D04FF4807048
:109C900006F000FF00284CD04FF4807006F004FF5F
:109CA0004A48408B494991F82D10884216DD4748B3
:109CB000408B464991F82D10401A444948830A4682
:109CC00012890B465B8BD21A0B465B6803EB420092
:109CD0000A4692F82D1006F0C9FE23E03B48408B5F
:109CE0003A4991F82D1088420FD13848C06860B1C8
:109CF0000120364981F82F00002048830A4692F857
:109D00002D10D06806F0B2FE0CE03048408B2F4991
:109D100091F82D10884205D101202C4981F82F009F
:109D2000002048834FF4827006F0BEFE042006F047
:109D3000D3FE4FF4887006F0ADFE70B14FF488701A
:109D400006F0B2FE00202149087402208DF80000C0
:109D5000084601686846884700BF4FF48A7006F0DD
:109D600099FE38B14FF48A7006F09EFE0020174924
:109D700008742AE01548456924E0B5FA85F64FF0E5
:109D80000040F0408543B00000F58C74204606F09A
:109D900081FEB8B1204606F087FE01208DF8000054
:109DA000A4F58C70C0F3C7008DF80400A4F58C7086
:109DB000012121EA90018DF80510044801686846E8
:109DC000884700BF002DD8D100BFFEBDD42E002093
:109DD00010B500F01DFE10BD2DE9F047074688467E
:109DE0001646C24607EB47011B4800EBC109D9F8EC
:109DF000140020B1012811D0022826D11EE04846C7
:109E000000F03EFE0546B54201D2002405E034468E
:109E100032465146484600F07AFE18E0484600F0C7
:109E20002FFE0546B54201D2284600E030460446E2
:109E300022465146484600F06AFE08E03246514646
:109E4000484600F02BFE044601E0002400BF00BF9E
:109E50002046BDE8F08700006837002010B507F005
:109E600089F810BD4FF06B32064B5A600A23054A41
:109E7000936000F10802034B1B1D995401221B1F24
:109E80001A7070475C2C00202DE9F84F064600211F
:109E90001B20FFF7E7FF00211A20FFF7E3FF002157
:109EA0001920FFF7DFFF9EB991480568C5F3074702
:109EB000C5F3072805F0FF0939460220FFF7D2FF56
:109EC00041460120FFF7CEFF49460020FFF7CAFFB9
:109ED000002E62D0344686480568C5F3074AC5F3AC
:109EE000072BE8B200908348281A83490968884202
:109EF00054D982480078012850D00A2C07D0142C5D
:109F000005D01E2C03D0282C01D05A2C46D10A2C67
:109F10000BD151460C20FFF7A5FF59460B20FFF748
:109F2000A1FF0A200099FFF79DFF142C0BD1514689
:109F30000F20FFF797FF59460E20FFF793FF0D20E4
:109F40000099FFF78FFF1E2C0BD151461220FFF70F
:109F500089FF59461120FFF785FF10200099FFF770
:109F600081FF282C0BD151461520FFF77BFF594666
:109F70001420FFF777FF13200099FFF773FF5A2C87
:109F80000BD151461820FFF76DFF59461720FFF7F8
:109F900069FF16200099FFF765FFA7E055482844A0
:109FA00055490968884254D254480078012850D154
:109FB0000A2C07D0142C05D01E2C03D0282C01D03D
:109FC0005A2C46D10A2C0BD151460C20FFF74AFFE0
:109FD00059460B20FFF746FF0A200099FFF742FF82
:109FE000142C0BD151460F20FFF73CFF59460E2091
:109FF000FFF738FF0D200099FFF734FF1E2C0BD11F
:10A0000051461220FFF72EFF59461120FFF72AFF75
:10A0100010200099FFF726FF282C0BD15146152060
:10A02000FFF720FF59461420FFF71CFF132000996B
:10A03000FFF718FF5A2C59D151461820FFF712FF8D
:10A0400059461720FFF70EFF16200099FFF70AFF69
:10A050004CE02848281A28490968884220D9052C4C
:10A060001EDB0A2C1CD0142C1AD01E2C18D0282C25
:10A0700016D05A2C14D051460520FFF7F3FE59464E
:10A080000420FFF7EFFE03200099FFF7EBFE2146C7
:10A090000620FFF7E7FE00210720FFF7E3FE25E09B
:10A0A000144828441449096888421FD2052C1DDB36
:10A0B0000A2C1BD0142C19D01E2C17D0282C15D0EC
:10A0C0005A2C13D051460520FFF7CCFE59460420E8
:10A0D000FFF7C8FE03200099FFF7C4FE21460620C3
:10A0E000FFF7C0FE01210720FFF7BCFEBDE8F88F97
:10A0F00040230020A0860100482300205023002098
:10A100001FB57DA207CA01AB07C39DF80B0030380D
:10A110004FF47A7110FB01F19DF80C00303800EB20
:10A12000C00202EB001001EB80019DF80D003038F9
:10A1300000EB800001EB40019DF80E003038084430
:10A14000704908809DF804004A2809D19DF805004F
:10A15000612805D19DF806006E2801D101204880B4
:10A160009DF8040046280AD19DF80500652806D10F
:10A170009DF80600622802D10220624948809DF8BD
:10A1800004004D280AD19DF80500612806D19DF8EC
:10A190000600722802D103205A4948809DF8040025
:10A1A00041280AD19DF80500702806D19DF80600C7
:10A1B000722802D10420534948809DF804004D289C
:10A1C0000AD19DF80500612806D19DF8060079287E
:10A1D00002D105204B4948809DF804004A280AD145
:10A1E0009DF80500752806D19DF806006E2802D15D
:10A1F0000620444948809DF804004A280AD19DF869
:10A200000500752806D19DF806006C2802D10720AC
:10A210003C4948809DF8040041280AD19DF805007A
:10A22000752806D19DF80600672802D10820354917
:10A2300048809DF8040053280AD19DF80500652840
:10A2400006D19DF80600702802D109202D494880CA
:10A250009DF804004F280AD19DF80500632806D117
:10A260009DF80600742802D10A20264948809DF8EE
:10A2700004004E280AD19DF805006F2806D19DF8EC
:10A280000600762802D10B201E4948809DF8040064
:10A2900044280AD19DF80500652806D19DF80600DE
:10A2A000632802D10C20174948809DF80800302807
:10A2B0000CDD9DF8090030389DF80810303901EBAD
:10A2C000810100EB41000F49888004E09DF80900FE
:10A2D00030380C4988800B4880880A4900904B88A8
:10A2E0000A880949094C091BC908032444EA0140AA
:10A2F00007A106F03FF91FBD4170722032372032AE
:10A30000303233001823002040530200D0520200A4
:10A3100025642D25642D25640000000010B5044639
:10A3200084B935480078012806D1142005F037FE9D
:10A33000122005F034FE05E0122005F0E5FD1420A2
:10A3400005F0E2FD012C1ED12B480078012806D132
:10A35000142005F024FE122005F021FE13E027480A
:10A36000007830B9122005F01AFE142005F0CCFD5B
:10A3700009E022480078012805D1142005F00FFEDD
:10A38000122005F0C1FD022C01D0032C32D11A4855
:10A39000007801281AD11A480078012809D1142020
:10A3A00005F0FDFD122005F0FAFD002014490870AB
:10A3B00020E013480078E8B9142005F0A5FD12202C
:10A3C00005F0A2FD01200E49087013E00B4800784B
:10A3D00030B9122005F0F9FD142005F095FD09E0D3
:10A3E00006480078012805D1142005F0EEFD122062
:10A3F00005F08AFD10BD0000CD220020D0220020F3
:10A40000CE22002001480249086070470048E80158
:10A410008C24002010B504F013FE28B16A480068AF
:10A42000C0F342306949086004F020FE48B10020C2
:10A43000674908604FF08041C1F810016349091F66
:10A44000086004F029FE002855D06248006862497F
:10A4500008606048001D0068091D08605D480830FC
:10A460000068091D08605B480C300068091D086021
:10A47000584810300068091D0860564814300068BC
:10A48000091D08605348183000685349203108609E
:10A4900050481C300068091D08604E482030006894
:10A4A000091D08604B4824300068091D08604948B0
:10A4B00028300068091D086046482C300068091DD6
:10A4C00008604448303000684349403108604148E2
:10A4D00034300068091D08603E4838300068091DA6
:10A4E00008603C483C300068091D0860394840302D
:10A4F0000068091D086004F075FD10B1FB203749A4
:10A50000086004F071FD40B13548006800F00100BA
:10A5100018B16FF001003249086004F07BFD28B1EA
:10A520003048006840F00F002E4908602E4800684F
:10A5300000F0004030B92C48001D006800F00040D9
:10A5400000283ED001202949086000BF2848006843
:10A550000028FBD015202449086000BF244800686B
:10A560000028FBD015212048001D016000BF2048B5
:10A5700000680028FBD000201C49086000BF1C4870
:10A5800000680028FBD000BF00BF00BF00BF00BFB5
:10A59000BFF34F8F00BF00BF00BF1648006800F434
:10A5A000E06015490843001D1249086000BF00BF64
:10A5B00000BFBFF34F8F00BF00BF00BF00BF00BF91
:10A5C000FDE7FFF71FFF10BD440200103C050040EF
:10A5D0000C0100400404001020C5004018F50040A4
:10A5E00000040040E40E00400012001004E50140A9
:10A5F00000E401400CED00E00000FA0501460A29E4
:10A6000003DA01F13000C0B270470A2905DB1029D6
:10A6100003DA01F13700C0B2F6E73020F4E70000BA
:10A6200010B502490868804710BD00007023002063
:10A630002DE9F0470746D64804680568D548006804
:10A64000A04203D9D3480068041B02E0D148006847
:10A65000241AD0480068A84203D9CE480068451B98
:10A6600002E0CC4800682D1ACB480078012814D0AD
:10A67000CA480078FEF792FF8146C9490968C54A71
:10A680001268881AFEF78AFF82464946FEF748FF9D
:10A690008046C449FEF744FF0646BF4800780128BB
:10A6A00014D1BE480078FEF779FF8146B9490968A0
:10A6B000BB4A1268881AFEF771FF82464946FEF7C8
:10A6C0002FFF8046B749FEF72BFF06462046FEF7D0
:10A6D00065FF81463146FEF723FF8046FEF763FFA4
:10A6E0000446AD480078012862D0B4F57A7F0FD3D4
:10A6F000AD494968A74A1268881AFEF74FFF81469C
:10A70000AA49FEF70DFF8046A649FEF709FF064657
:10A7100043F6982084420FD3A34989689D4A126862
:10A72000881AFEF73BFF8146A149FEF7F9FE8046F5
:10A730009C49FEF7F5FE064646F2A81084420FD368
:10A740009949C968934A1268881AFEF727FF81461B
:10A750009849FEF7E5FE80469249FEF7E1FE06467F
:10A7600048F6B80084420FD38F490969894A1268B4
:10A77000881AFEF713FF81468F49FEF7D1FE804607
:10A780008849FEF7CDFE06464EF6602084420FD380
:10A790008549496A7F4A1268881AFEF7FFFE81469A
:10A7A0008649FEF7BDFE80467E49FEF7B9FE0646A5
:10A7B00079480078012862D1B4F57A7F0FD37A49BD
:10A7C0004968744A1268501AFEF7E8FE81467749D4
:10A7D000FEF7A6FE80467349FEF7A2FE064643F644
:10A7E000982084420FD3704989686A4A1268501AC7
:10A7F000FEF7D4FE81466E49FEF792FE8046694917
:10A80000FEF78EFE064646F2A81084420FD3664934
:10A81000C968604A1268501AFEF7C0FE8146654951
:10A82000FEF77EFE80465F49FEF77AFE064648F652
:10A83000B80084420FD35C490969564A1268501A1D
:10A84000FEF7ACFE81465C49FEF76AFE804655493C
:10A85000FEF766FE06464EF6602084420FD352494C
:10A86000496A4C4A1268501AFEF798FE81465349CD
:10A87000FEF756FE80464B49FEF752FE0646284636
:10A88000FEF78CFE81463146FEF74AFE8046FEF713
:10A890008AFE0546601B41F28831884202D3281B9C
:10A8A00088420AD24648407838B1B4F57A7F04D35A
:10A8B00043F69820844200D22C46601B41F2883136
:10A8C000884202D3281B88420BD23D48807840B191
:10A8D00043F69820844204D346F2A810844200D262
:10A8E0002C46601B41F28831884202D3281B8842E3
:10A8F0000BD23348C07840B146F2A810844204D34A
:10A9000048F6B800844200D22C46601B41F28831E0
:10A91000884202D3281B88420BD22948007940B1D3
:10A9200048F6B800844204D34AF6C870844200D284
:10A930002C46601B41F65831884202D3281B8842BE
:10A9400013D21F48407A80B14EF66020844205D36E
:10A950001C48844202D2600800EB55041948844226
:10A9600003D31948844200D22C460A20B4FBF0F4E9
:10A9700057B916480068844203D314480068241A63
:10A9800002E012480068041B2046BDE8F087000082
:10A990004023002048230020502300205123002082
:10A9A0004C23002000007A44D82C002000002041D5
:10A9B0000000A0410000F041000020420000B4422D
:10A9C000142D002070110100B0AD010044230020BF
:10A9D00008B500BF4FF480700B49405808B1012002
:10A9E00000E0002078B109480068804700BF0020DF
:10A9F0004FF48071044A8850084611464058009030
:10AA000000BF00BF00BF08BD000001407C23002044
:10AA100010B5124C02202061606111A0A0611349A1
:10AA2000E1614FF4007121620021A1626162E16283
:10AA30000BA0A0640E49E164102121650021A165ED
:10AA40006165E1650BA1E01DFEF761FD0AA12046ED
:10AA5000FEF75DFD2020A07110BD000050370020E2
:10AA60005465726D696E616C00000000C83700208B
:10AA7000C8390020525454005345474745520000FE
:10AA800010B501460A69CB689A4204D88C68641EE6
:10AA9000E41AA01801E0D41A601E10BD2DE9F04799
:10AAA0000446894617464FF0000AE56800BFD4F80F
:10AAB0001080A84503D9A8EB0500461E04E0A5EBCD
:10AAC0000800401CA1680E1AA068401BB04201D9C2
:10AAD000304601E0A068401B0646BE4201D2304627
:10AAE00000E0384606466168481932464946FEF796
:10AAF000E3FCB244B144BF1B3544A068A84200D176
:10AB00000025E560002FD2D15046BDE8F0872DE941
:10AB1000F047044689461546E668A068871BAF42A1
:10AB200008D9616888192A464946FEF7C5FC70199C
:10AB3000E06010E0B8466168881942464946FEF771
:10AB4000BBFCA5EB070809EB070142466068FEF76E
:10AB5000B3FCC4F80C80BDE8F087000000BF00BF64
:10AB600000BFBFF34F8F00BF00BF00BF09480068A0
:10AB700000F4E06008490843001D0649086000BF72
:10AB800000BF00BFBFF34F8F00BF00BF00BF00BFBB
:10AB900000BFFDE70CED00E00000FA0502E008C888
:10ABA000121F08C1002AFAD170477047002001E047
:10ABB00001C1121F002AFBD1704700000146202965
:10ABC00008DA012088400A4A104008B10120704785
:10ABD0000020FCE7402909DAA1F12000012202FA55
:10ABE00000F008B10120F2E70020F0E70120EEE7D5
:10ABF000FC06FFBD00BFEFF31081084672B6704738
:10AC0000014601F0030008B9012070470020FCE76D
:10AC1000024650680068401E084008B9012070478D
:10AC20000020FCE70246002104E0505C08B101204E
:10AC30007047491C0629F8D30020F9E710B50346F0
:10AC4000D868884206D88818401E1C69A04201D8DE
:10AC5000012010BD0020FCE710B504466CB1084887
:10AC6000C068A04209D806480069A04205D3204622
:10AC700003F091FA08B1012010BD0020FCE70000AC
:10AC80009024002070B504460D4604F22740FFF7DB
:10AC9000C9FF0646012D06D0022D0DD0032D11D07F
:10ACA000042D19D113E0A07928B194F8240010B92B
:10ACB0000EB1012070BD00BFE07910B10EB10220CD
:10ACC000F8E700BF207A08B10320F3E700BF607AFD
:10ACD00008B10420EEE700BF0020EBE70146481C66
:10ACE000052290FBF2F302FB1300C0B2704701464D
:10ACF00091F82420012A01D1EE2000E01F207047A6
:10AD000030B59FB03C2110A8FEF7EFFB3C2101A815
:10AD1000FEF7EBFB02208DF8400000208DF842008A
:10AD200006208DF843000120ADF814000A49069171
:10AD300001AA10A9094800F01FFD044600BF2546DE
:10AD40003DB100BF06A240F28F112846FEF738FB46
:10AD500000BF00BF1FB030BD38230020FC270020FB
:10AD60002E2E5C2E2E5C6170705C64657669636566
:10AD70005F6E616D655C6465766963655F6E616D6C
:10AD8000655F6F702E63000030B5ADB004202C906D
:10AD9000AC2101A8FEF7A9FB02208DF804000020D9
:10ADA0008DF806002CA8029006208DF807000121DE
:10ADB000ADF850101A49159101218DF880104FF40B
:10ADC000A07123910021249116482A9001A91648C8
:10ADD00000F038FD044600BF25463DB100BF13A278
:10ADE00040F2D3112846FEF7EBFA00BF00BF012165
:10ADF0000D4800F024FD0C4890F854100422012066
:10AE000077DF044600BF25463DB100BF07A24FF4DF
:10AE1000EE712846FEF7D4FA00BF00BF2DB030BD5A
:10AE200038230020BD1B0200FC2700202E2E5C2EA4
:10AE30002E5C6170705C6465766963655F6E616DE0
:10AE4000655C6465766963655F6E616D655F6F7093
:10AE50002E63000070B50321084800F09EFD0446F3
:10AE600000BF25463DB100BF05A24FF4F271284650
:10AE7000FEF7A6FA00BF00BF70BD0000FC2700204F
:10AE80002E2E5C2E2E5C6170705C64657669636545
:10AE90005F6E616D655C6465766963655F6E616D4B
:10AEA000655F6F702E63000010B5002407E007494E
:10AEB000096811F83400012106F0FCF9641C04480B
:10AEC00000788442F3D3002010BD000080230020CE
:10AED000842300202DE9F84306460D4617460A2F25
:10AEE00002D20720BDE8F88306F028FB38B906F047
:10AEF000BBFA044600BF204600B1F3E700BF184884
:10AF0000066018480570184807601848002101605D
:10AF100041608160C160164A1160516015E006EB26
:10AF2000C50814480068009098F802008DF80100E8
:10AF300098F80000104A694606F012FA044600BF6D
:10AF4000204600B1CEE700BF00BF281EA5F10101D9
:10AF5000CDB2E4D1094A0021094800F063F9C1E704
:10AF6000802300208423002088230020282F002015
:10AF700090230020E0470200C5DD0100FDC901006B
:10AF8000DC4702002DE9FE4307460E46144672B622
:10AF900000BF05F0DBFB00BF00BF05F037F900285C
:10AFA000FBD100BF00BF012F0CD06FF4805038449C
:10AFB00098B1B0F5405F2CD06FF4405108440028A0
:10AFC00047D115E03149324A891AC908012242EABB
:10AFD000014030A105F0A8FA47E02C492C4A891A13
:10AFE000C908012242EA014032A105F09DFA3CE085
:10AFF00025462649DFF898C0A1EB0C01C9084FF09F
:10B00000010C4CEA014034A1D5E9003205F0A2FA66
:10B010002BE02546A86806F0B7F88046D5E9001071
:10B020008DE8430019491A4BC91AC908012343EA9C
:10B03000014043462FA1AA6805F0B0FA1349144A0B
:10B04000891AC908012242EA014034A105F06CFACC
:10B050000BE00E490E4A891AC908012242EA014052
:10B06000324633A105F06AFA00BF00BF00BF364880
:10B07000006800F0010000B100BE00BF224631466A
:10B08000384600F063F8BDE8FE830000405302003C
:10B09000D0520200534F46544445564943453A2046
:10B0A000415353455254494F4E204641494C454423
:10B0B00000000000534F46544445564943453A204A
:10B0C000494E56414C4944204D454D4F525920411F
:10B0D0004343455353000000415353455254494F95
:10B0E0004E204641494C45442061742025733A2541
:10B0F000750000004552524F52202575205B257384
:10B100005D2061742025733A25750D0A5043206136
:10B11000743A20307825303878000000456E64207D
:10B120006F66206572726F72207265706F72740044
:10B13000554E4B4E4F574E204641554C542061744E
:10B140002030782530385800F0ED00E018B50123A4
:10B1500000939DF800301E4B186059609A606FF4A0
:10B160008043034463B1012B19D1194BDA60DB68CA
:10B170001B68174CA3612346DB685B68E3610EE044
:10B18000134B1A611B699B68114C636123461B6951
:10B190001B68A36123461B695B68E36100BF00BFB6
:10B1A0000B4B1B680A4B5B68094B9B68084BDB68C1
:10B1B000074B1B69064B5B69054B9B69044BDB69BD
:10B1C00072B600BF9DF80030002BFBD162B618BDEF
:10B1D000AC2F002070B504460D46204602F074FAEC
:10B1E00028B12946204602F063FA002070BD0520F0
:10B1F000FCE770B504460D46204602F065FAA188CA
:10B20000884205D82946204602F06CFA002070BD1D
:10B210000420FCE710B5024801F020FD10BD00003D
:10B220009823002010B503460C460AB9072010BD2C
:10B2300019684A61012C01D1012000E00020086159
:10B240000020F4E738B5134800680090082358221E
:10B2500011491248006803F040FF04460CB1204633
:10B2600038BD0F4A69460F4801F0FEFC04460CB198
:10B270002046F5E701210B4801F09CFD01230A4A15
:10B280001946084801F0BCFC012008490870204616
:10B29000E6E70000F4470200382F0020E4470200F0
:10B2A000732F020098230020FFFF7F00A4230020BB
:10B2B0002DE9F04106460D4617463446207F10B171
:10B2C0000020BDE8F081A76102F05EFD401941F168
:10B2D0000001C4E90201206900B125612146002076
:10B2E00008F00CFCEDE770B50446254600202877F1
:10B2F0002946012008F002FC70BD00002DE9F04154
:10B30000054629461448FFF774FF064606BB134C52
:10B31000002720781249085C20B1201D06F098FB18
:10B32000074608E020780E49085C20B904F10C00BB
:10B3300006F01CFB074600BF57B90A490648FFF74D
:10B3400049FF28B901220749044804F08DF906464F
:10B350003046BDE8F0810000E82F0020D423002013
:10B3600064230020EC23002010B50446204607F09B
:10B370007FFF10BD70B5044625460E488068B0B109
:10B38000ADB9FFF737FC06460A4800680A4908606D
:10B39000084840684FF0E021C1F804010020054949
:10B3A00088601EB900BF62B600BF00BF00BF00BF0B
:10B3B00070BD0000CC2F002000E100E0F8B505468C
:10B3C0000C4617462088001DB84201D90C20F8BD54
:10B3D000684679DF064600BF304600B1F7E700BF98
:10B3E0000320218868542088401C2080192021884F
:10B3F00068542088401C208020884119BDF8000036
:10B4000008F06EFD2188084420800020DFE700005E
:10B41000002114E00C48D0F81024012308E000BFFC
:10B42000D0680079884201D1002303E0D068026827
:10B43000002AF4D100BF0BB108467047491C0A2905
:10B44000E8DB4FF0FF30F8E7303300202DE9F04122
:10B4500004460F46154615B90E20BDE8F0810020C0
:10B46000286000BF0CB90E20F7E700BF00BF2068BE
:10B4700008B90E20F1E700BF00BFE088C11700EB5C
:10B4800091718910A0EB810109B10720E5E700BFA8
:10B49000384600F08BFBC6B2142E01D10520DCE744
:10B4A0002079B04201DC0420D7E7E188206806FB60
:10B4B000010028600020D0E710B58CB001208DF885
:10B4C00008004FF4A0700590002006908DF804004D
:10B4D00001A90A4800F03AFA0321084800F05DFA91
:10B4E00004460749074A891AC908032242EA01406B
:10B4F000224605A105F022F80CB010BDFC27002063
:10B5000040530200D0520200424C45204164762054
:10B5100053746172742125640000000010B58CB072
:10B5200001208DF808004FF4A070059000200690CF
:10B5300001208DF8040001A90C4800F007FA0B491E
:10B5400091F8540074DF0021084800F026FA044600
:10B550000749084A891AC908032242EA01402246DB
:10B5600005A104F0EBFF0CB010BD0000FC2700208B
:10B5700040530200D0520200424C452041647620E4
:10B5800053746F70212564002DE9FC4105468846FF
:10B590001646002437880020308095F82D0058B1D9
:10B5A0003A463146404600F019FB044600BF2046AB
:10B5B00008B1BDE8FC8100BFA87850B13A463146D9
:10B5C0004046FFF7FBFE044600BF204600B1F0E70F
:10B5D00000BFE87860B1E97848B23B463246414660
:10B5E00002F077F9044600BF204600B1E1E700BF52
:10B5F000686868B1696891F900003B463246414687
:10B6000008F04BFB044600BF204600B1D1E700BF65
:10B61000288900280EDD43460622022105F1080094
:10B62000CDE9006708F03EFD044600BF204600B1AA
:10B63000BFE700BF288A00280EDD4346072203210A
:10B6400005F11000CDE9006708F02CFD044600BFAD
:10B65000204600B1ADE700BF288B00280EDD434631
:10B660001522142105F11800CDE9006708F01AFD34
:10B67000044600BF204600B19BE700BF286A58B1CE
:10B680003B4632464146286A01F0E0F8044600BFD6
:10B69000204600B18DE700BF686A58B13B4632468C
:10B6A0004146686A03F064FB044600BF204600B1CF
:10B6B0007FE700BF95F82C0000280BDD3B463246A3
:10B6C0004146284607F0E8FE044600BF204600B188
:10B6D0006FE700BF287858B13B46324641462846BE
:10B6E00003F01CFC044600BF204600B161E700BF28
:10B6F00020465EE7F8B504460E4615460020009049
:10B700002B466A463146204600F008F807460FB936
:10B710000020F8BDBDF800002044FAE7F0B504466B
:10B720000D461E4604B10AB90020F0BD002103E019
:10B73000605C401C084481B2481CA84206DA1088AC
:10B740008842F5DC481C205CB042F1D1A94201DB03
:10B750000020EAE7881C87B2605C10B1605C401E84
:10B7600000E0002083B213B1F818A84201DD0020E8
:10B77000DBE717801846D8E72DE9FF4104460D4660
:10B78000164600BF1CB90E2004B0BDE8F08100BF12
:10B79000207808B90820F7E715B90EB90E20F3E7AD
:10B7A00000200090019002900390DDB1D4F82004B5
:10B7B000016804F15500814200D001E004F2431019
:10B7C00000902046FFF793FAADF8040001AA28463E
:10B7D0000099FFF7D9FE074600BF384600B1D3E70E
:10B7E00000BF00BFDEB1D4F82004816804F231202C
:10B7F000814200D001E004F21F3002902046FFF7A2
:10B8000076FAADF80C0003AA30460299FFF7BCFEA9
:10B81000074600BF384600B1B6E700BF00BF04F5D9
:10B8200080609DE88E0010308EC01038C4F820046F
:10B83000002204F15400D4F8201472DFA4E780F849
:10B840003010704770B504460D4605B10CB90E2096
:10B8500070BD05F1780000F09AFF08B90720F7E7FE
:10B860000020A0702C2205F17801201DFDF724FE98
:10B87000002084F83000D5F8A4006063D5F8A80053
:10B88000A0634FF6FF70A4F8240404F58260C4F8A6
:10B890002004002140F22C40C4F82614A4F82A14F5
:10B8A0000155207810B9FF2084F8540004F15500A8
:10B8B000C4F810042046FFF71AFA40F21441085366
:10B8C00004F2144204F155012846FFF75DFE0646D6
:10B8D00000BF304600B1BBE700BF04F231204FF497
:10B8E000836108512046FFF702FAA4F81C044FF4C4
:10B8F0008360015904F21C4205F13C00FFF744FE4D
:10B90000064600BF304600B1A2E700BF012151202A
:10B910000155208B81B248200153012084F83C005E
:10B9200000212164502001556169616404F13C02E9
:10B93000002104F1540072DF064600BF304600B11A
:10B9400086E700BF01202070304681E770B50446CD
:10B950000D462C222946201DFDF7AEFD70BD70B5A9
:10B9600004460D462E462088102804D0112807D002
:10B9700026280FD109E02146304606F02FFA0AE0CA
:10B980002146304606F09FFA05E02146304606F093
:10B990002EFC00E000BF00BF70BD70B504460E462F
:10B9A000207808B9082070BDA670002140F22C4014
:10B9B000C4F82614A4F82A140155A07910B1A0786F
:10B9C000012809D0E07910B1A078012804D0E079ED
:10B9D00070B1A07802280BD1606B30B1012084F8DF
:10B9E0002D040820616B884702E0002084F82D04B4
:10B9F00031462046FFF746F9A070606BA0B1A078F1
:10BA0000032802D0A07804280ED1607960B194F8A0
:10BA10002E0448B9002084F83004012084F82F0453
:10BA20000720616B884702E0002084F82F0418216A
:10BA300004F13C00FDF759FD012084F83C0004F1BD
:10BA40002C0006F03FFE20B194F82C105120015537
:10BA500002E001215120015594F8240060B104F165
:10BA6000280006F02FFE20B194F82810522001552E
:10BA700002E0012152200155002150200155A078FB
:10BA8000052824D2DFE800F01F030A11180004F192
:10BA90003C01204607F09CFD054619E004F13C01FD
:10BAA000204607F083FD054612E004F13C012046E4
:10BAB00007F0A0FD05460BE004F13C01204607F02D
:10BAC000C0FD054604E0002084F8310000E000BF1E
:10BAD00000BFA07898B104F13C0204F15400D4F8FE
:10BAE000201472DF05460DB128465CE794F830104B
:10BAF00094F8540073DF05460DB1284653E7606B98
:10BB000018B194F83100616B884700204BE70000C2
:10BB10002DE9F041044600BF14B90E20BDE8F081C4
:10BB200000BF1C2221461C48FDF7C6FC1B481A49D1
:10BB30000860206860B120687ADF05460DB12846AC
:10BB4000ECE7164821680A6802604968416005E030
:10BB500012487BDF05460DB12846DFE7002617E0D7
:10BB600006EB86000E4901EB800700BF4FF6FF7021
:10BB7000388000BF0B4800EB461078600A4A00216D
:10BB8000381DFFF74FFB05460DB10320C6E7761CB5
:10BB9000002EE5D00020C1E77C2D0020542300209A
:10BBA000682D0020482D0020C93F020010B5044632
:10BBB000204600F005F808B1204610BD1420FCE72F
:10BBC00010B50446142C01DB002010BD21460248AC
:10BBD00003F0DEFAF9E700009C2D00202DE9FC417E
:10BBE00005460C46174620880930B84202D90C2079
:10BBF000BDE8FC8168466DDF064600BF304600B1F7
:10BC0000F6E700BF0820218868542088401C208067
:10BC10001B20218868542088401C208020882844CC
:10BC2000DDF801100160BDF8051081802088801DBD
:10BC300020809DF80000400818B900202188685431
:10BC400002E00120218868542088401C20800020C8
:10BC5000CEE70000F8B505460F460024284600F060
:10BC6000AFF92888212879D006DC102835D0112892
:10BC700009D013286FD184E03B286DD052286CD0B6
:10BC80005628F7D1B0E04FF6FF705E4908802A7A57
:10BC90005D495E4BC91AC908032343EA01405CA110
:10BCA00004F04CFC62480078022806D1012060496B
:10BCB000087008460078FEF731FB5349534A891A49
:10BCC000C908032242EA01405AA104F02DFC0020D9
:10BCD0005C4908705C49087092E04B494B4A891AEC
:10BCE000C908032242EA014058A104F01DFC0220C9
:10BCF00004F055F900205349087053490870022098
:10BD00004B490870A8883F49088008460188534875
:10BD100003F0E8FB044600BF26463EB100BF50A238
:10BD200040F22F313046FDF74BFB00BF00BF04222D
:10BD300034480188032077DF044600BF26463EB121
:10BD400000BF47A24FF44D713046FDF739FB00BFED
:10BD500000BF55E002E052E03BE026E0002000900A
:10BD6000A88869468FDF044600BF26463EB100BF63
:10BD70003BA240F23F313046FDF722FB00BF00BF3F
:10BD80003EE000231A4685211E4800887FDF0446D6
:10BD900000BF26463EB100BF31A240F245313046D9
:10BDA000FDF70EFB00BF00BF00BF00231A46194677
:10BDB00014480088B1DF044600BF26463EB100BFEC
:10BDC00027A240F249313046FDF7FAFA00BF00BF22
:10BDD00016E00D490D4A891AC908032242EA0140BA
:10BDE00024A104F0A1FB0BE00749084A891AC908FD
:10BDF000032242EA014023A104F096FB00E000BFC9
:10BE000000BFF8BD1423002040530200D0520200AE
:10BE1000446973636F6E6E65637465642E2072652A
:10BE200061736F6E3A20307825303478000000005E
:10BE3000CA220020424C4520427265616B65642134
:10BE400000000000D3220020D5220020424C4520D3
:10BE5000436F6E6E6563746564210000B824002032
:10BE60002E2E5C2E2E5C6170705C6D61696E2E638F
:10BE70000000000047415454432054696D656F75BC
:10BE80007400000047415454532054696D656F7528
:10BE90007400000070B504460D462088102806D0B6
:10BEA000112808D012280ED0502810D107E02046C3
:10BEB00005F0F2FE0CE0204605F0ECFF08E020461D
:10BEC00006F0C6F904E0204605F0CEFE00E000BF13
:10BED00000BF70BD2DE9F04104460F46A6882088BA
:10BEE000102806D0112819D019283FD01A284AD175
:10BEF00018E006F0F5FF304606F076FE30B900BFD8
:10BF000022A2F0210420FDF75BFA06E0E07B022884
:10BF100003D13146294803F04AF934E0304607F0AE
:10BF200003F830E0207A0509042D01DB012000E050
:10BF300000200246314621480C3001F0BBFC032DA5
:10BF400001DB012000E00020024631461B4808309A
:10BF500001F0B0FC022D01DB012000E000200246D0
:10BF600031461648001D01F0A5FC0CE0207A48B9C6
:10BF7000607AC0F3C0052A46314610480C3001F003
:10BF800099FC00BF00BF00BFBDE8F0812E2E5C2EE3
:10BF90002E5C636F6D706F6E656E74735C626C6542
:10BFA0005C636F6D6D6F6E5C626C655F636F6E6E10
:10BFB0005F73746174652E6300000000A42D00207F
:10BFC00070B50546AC1D6088B0F5285F17D128888C
:10BFD000502814D1628904F10C010948FDF76CFA6C
:10BFE0004FF05A3006490C394860618904480C38D2
:10BFF0008160FEF785FE012001490C39087070BD93
:10C000003C2C002070B50446204607F063FF05462F
:10C0100005F0010070BD000038B504F069FF04466A
:10C0200000BF25463DB100BF15A24FF45771284609
:10C03000FDF7C6F900BF00BF00200090694601204F
:10C0400004F05CFD044600BF25463DB100BF0CA2D4
:10C0500040F261312846FDF7B3F900BF00BF6846E2
:10C0600004F016FE044600BF25463DB100BF04A201
:10C070004FF459712846FDF7A3F900BF00BF38BD42
:10C080002E2E5C2E2E5C6170705C6D61696E2E636D
:10C09000000000002DE9F04186B0044688461746AE
:10C0A0001D4600BF1CB90E2006B0BDE8F08100BFE0
:10C0B00001AA29466069FFF7C9F9064600BF304664
:10C0C00000B1F1E700BF4FF6FF70854201D0019843
:10C0D00008B90520E8E70198007808B90820E3E7E7
:10C0E0003888F42801DD0720DEE700200290039065
:10C0F00004900590A088ADF80800CDF8148004974E
:10C1000001208DF80A0002A92846AEDFCCE7000026
:10C1100070B58EB004460E463E4B0FCB09AD0FC531
:10C1200000BF14B90E200EB070BD00BF00BF0EB925
:10C130000E20F8E700BF3068A061214609A862DF41
:10C14000054600BF284600B1EDE700BF20788DF816
:10C1500036000120ADF83400A21C0DA9A8DF054669
:10C1600000BF284600B1DEE700BF202101A8FDF78F
:10C17000BCF90220ADF8040020788DF80600F42008
:10C18000ADF808000120ADF80A008DF810009DF808
:10C19000110020F0080008308DF811009DF8110002
:10C1A00020F00400001D8DF8110001208DF815000D
:10C1B0008DF81600608804F10C0201A900F0C4F9A2
:10C1C00005460DB12846AEE7202101A8FDF78DF9FF
:10C1D0000320ADF8040020788DF80600F420ADF8B7
:10C1E00008000120ADF80A008DF810009DF811003C
:10C1F00020F0100010308DF8110001208DF815008E
:10C200008DF816008DF817006088221D01A900F036
:10C210009BF988E7D446020070B504460D4605B187
:10C2200004B970BD2E462088102804D0502807D0AD
:10C2300057280FD109E02146304605F065FD0AE098
:10C240002146304606F030F805E02146304605F03C
:10C25000F9FE00E000BF00BF00BFE2E72DE9FC47A8
:10C2600004460D461646A71C4FF001080020019019
:10C2700001A8FFF779F83048406828602E484068E8
:10C280002D498968411A2D480068401CA0EB01091E
:10C2900015E001212A4802F0AEFF01F0D1FF8246ED
:10C2A0005146274802F0A7FF234840682249896881
:10C2B000411A22480068401CA0EB010900BF4F450D
:10C2C000E7D8B8F1000F30D00021009176B1009985
:10C2D00021F00301491C0091009921F00401091D7E
:10C2E0000091009964F3891100910DE0009921F00B
:10C2F0000301891C0091009921F00401091D00919E
:10C30000009964F39F5100910B4949680B4A1268E8
:10C310001140094A0C3202EB810000990160064984
:10C32000496839440C3A516000BF9DF80400FFF79A
:10C3300021F84046BDE8FC8730330020442400202B
:10C340004C37002070B504460D460A2D03D10D214F
:10C350002046FFF7F7FFA168481CA06020684554FD
:10C36000D4E90110884202D3204603F0B4F970BD2D
:10C370000448806803494968884201D10120704718
:10C380000020FCE73033002070B505460C46032D35
:10C390002DD1012C2BD11648007880B91548007892
:10C3A00004280CD101201249087008460078FDF7D6
:10C3B000B5FFFFF781F800200F49088017E00C480F
:10C3C0000078002813DD0B48007804280FD10020E6
:10C3D0000749087008460078FDF7A0FF13210748B9
:10C3E000008876DFFFF79AF8072003F08DFD70BD17
:10C3F000CA220020CB220020E022002014230020AB
:10C400000246002108E0074B1B6803EBC1000378DC
:10C41000934200D17047491C034800788142F2DB07
:10C420000020F7E7802300208423002070B540F22D
:10C43000333203210F48FEF74DFD044600BF254669
:10C440003DB100BF0CA24FF470712846FCF7B8FF55
:10C4500000BF00BFFEF728FD044600BF25463DB1E2
:10C4600000BF05A240F2C3312846FCF7A9FF00BF78
:10C4700000BF70BD202300202E2E5C2E2E5C61702C
:10C48000705C6D61696E2E63000000004FF0FF313B
:10C49000054A42F82010082804DBFF23A0F1080118
:10C4A0005032535470470000282E002001460248A5
:10C4B00050F8210070470000282E00202DE9F04F91
:10C4C00003460C464FF0FF390AB1002000E0082077
:10C4D00084460AB1082000E00C208046614624E032
:10C4E000154850F82100401CF0B91D460846274663
:10C4F00016464FFA80FBDFF840A00AF1300A0AF82E
:10C5000005B0DFF834A04AF820704EB94FFA85FB29
:10C51000A0F1080ADFF820E00EF1500E0EF80AB084
:10C5200000BF4FFA81F902E0491C4145D8D300BF52
:10C530004846BDE8F08F0000282E00200146014843
:10C5400040567047582E002070B590B006460C46F5
:10C550001546A07818B901208DF80E0002E0A078E9
:10C560008DF80E002088ADF80C0000200290607C51
:10C5700002A907F08DF8A07C0DF1090107F088F8F9
:10C58000E07B08B1012000E000209DF80A1060F374
:10C59000C3018DF80A10207C08B1012000E00020C2
:10C5A0009DF80A1060F304118DF80A10207B08B181
:10C5B000012000E000209DF80A1060F300018DF8D2
:10C5C0000A10207D08B1022000E001209DF80A1029
:10C5D00060F342018DF80A101C2109A8FCF785FFC1
:10C5E000607BC0F3001018B9607BC0F34010F8B155
:10C5F00000200090E07C0DF1010107F049F800BF38
:10C600009DF8000020F00F00401C8DF800009DF800
:10C61000000020F0F00010308DF8000000BF9DF801
:10C62000020020F00600801C8DF80200CDF838D002
:10C63000607B8DF82400A07B8DF82500142104A8D0
:10C64000FCF753FF03A8049002A80590A088ADF85A
:10C650001C00A06820B1E088ADF81800A068089020
:10C66000A069002849D000200190A0690088ADF899
:10C670002C00A0694088ADF82E00A06940680A909F
:10C6800001A80D90A169087B01A907F001F8A16933
:10C69000487B0DF1050106F0FBFFA069807A08B127
:10C6A000012000E000209DF8061060F3C3018DF822
:10C6B0000610A069C07A08B1012000E000209DF8B2
:10C6C000061060F304118DF80610A069007A08B115
:10C6D000012000E000209DF8061060F300018DF8B5
:10C6E0000610A069807B08B1022000E001209DF8BF
:10C6F000061060F342018DF80610E06908B1E069A8
:10C700000C902B4604AA09A93046AADF10B070BDD0
:10C7100070B505460DB9094C01E0084C083409E034
:10C72000204601F040FD064606B904E0284671683F
:10C73000884700BFF4E700BF70BD00001C2E00203A
:10C7400010B504462CB90120064948700020FFF7B7
:10C75000DFFF012C04D1012002498870FFF7D8FFC8
:10C7600010BD0000142E00202DE9F04702461346AC
:10C770008C46D3E90245DCE90267B6EB040877EBA7
:10C78000050002D30120BDE8F0870020FBE7014649
:10C790008878012805D191F82000012801D10020D6
:10C7A0007047886A042802D0486A042801D1002012
:10C7B000F6E70120F4E733B58BB005460020009082
:10C7C0000C9878B100240BE021460CA802F0E0FCA4
:10C7D00028B1009A501C009001A820F81240641C57
:10C7E000142CF1D32C2269462846FCF765FE0DB0C7
:10C7F00030BD01460888062808DB0888B0F5486F78
:10C8000006DD08884FF6FF72904201D0072070477E
:10C810004888062808DB4888B0F5486F06DD488858
:10C820004FF6FF72904201D00720F0E708884FF6DC
:10C83000FF72904208D04888904205D008884A8804
:10C84000904201DD0720E2E70020E0E72DE9F0411A
:10C8500007460D46144698462088801D404502D95B
:10C860000C20BDE8F0813846FFF7C3FF064600BF45
:10C87000304600B1F5E700BF0520218868542088C4
:10C88000401C20801220218868542088401C208071
:10C8900022885119388807F023FB2188084420801A
:10C8A00022885119788807F01BFB218808442080D2
:10C8B0000020D6E70549064A891AC908032242EA38
:10C8C000014004A103F030FEFEF748F94053020096
:10C8D000D05202004170702052657365742033009D
:10C8E00030B587B01C216846FCF7FFFD00200090A2
:10C8F0004FF4A03001904FF4F020029003208DF807
:10C900000C000020ADF80E008DF810000A480590CC
:10C910000A4806906846FFF7FBF8044600BF254624
:10C920003DB100BF06A240F20E312846FCF748FD9B
:10C9300000BF00BF07B030BD351C0200B5C8010004
:10C940002E2E5C2E2E5C6170705C6D61696E2E63A4
:10C9500000000000F8B505460C46607A88B9207AD8
:10C9600010B91048476801E00E4887682A463946E2
:10C970006068FEF79DFC064616B1304606F02CFDB9
:10C980000EE0002020720748406948B101208DF870
:10C990000000ADF80250034841696846884700BF6F
:10C9A000F8BD00007C2D002070B506460D4616B17E
:10C9B0004FF4064070BD287920B1012809D0022823
:10C9C00015D111E002202871284606F06BF90446C3
:10C9D00010E0284600F090FE044648F209608442C8
:10C9E00001D141F61D5405E041F61D5402E048F224
:10C9F0000E6400BF00BF2046DCE700002DE9F041D7
:10CA00008046002414E01248006800EBC405287832
:10CA100004F020FD07466878012800D100E00020DE
:10CA2000784080F001062878314600F035FB641C20
:10CA3000084800788442E6DB0748D0E9001000236C
:10CA400059405840014301D007F078F8BDE8F08123
:10CA500080230020842300209023002070B51848F4
:10CA6000007801281ED116484078002826D10120E0
:10CA70001349487000F0D8FB044600BF25463DB17D
:10CA800000BF10A24FF4F8712846FCF799FC00BFD4
:10CA900000BF07F099FB00200949087001201349E5
:10CAA00008700BE011480078012807D1044840784D
:10CAB00020B900F0DBFC00200C49087070BD0000BC
:10CAC0003C2300202E2E5C2E2E5C6170705C646511
:10CAD000766963655F6E616D655C646576696365E3
:10CAE0005F6E616D655F6F702E630000302C0020FB
:10CAF00038B500BF9DF8000020F00F00401C0090EA
:10CB00009DF8000020F0F0001030009000BF00F011
:10CB10000DFEF8B91A484068B0F15A3F17D11848CD
:10CB2000008982B216490C3168467CDF044600BF9A
:10CB300025463DB100BF13A24FF4AA712846FCF769
:10CB40003FFC00BF00BF01200D49487002E00020FB
:10CB50000B4948700A48407880B9092213A16846F9
:10CB60007CDF044600BF25463DB100BF05A240F270
:10CB70005D112846FCF724FC00BF00BF38BD000053
:10CB8000302C00202E2E5C2E2E5C6170705C646553
:10CB9000766963655F6E616D655C64657669636522
:10CBA0005F6E616D655F6F702E63000057616C6B27
:10CBB00065725F554100000010B50021034802F086
:10CBC00051FB044684F3100010BD00004C370020D8
:10CBD00070B505460C464FF4803000FA04F1284643
:10CBE00000F040FA70BD70B505460C464FF4A070D9
:10CBF00000EB840086B23146284600F0C5FA70BDCD
:10CC00002DE9F04704460D4616461F464FF4803086
:10CC100000FA05F84FF4A07000EB85001FFA80F9C8
:10CC200026F07F464146206803F016FF4146206803
:10CC300003F00CFF4946206803F001FF3246294605
:10CC4000206803F0F3FE4146206803F002FF1FB1A5
:10CC50004146206803F003FFBDE8F08710B50446A5
:10CC6000206803F0E8FE10BD2DE9F04704460D46AC
:10CC700017466079324941F820706079314901EBFB
:10CC8000C000007968B108262F49304A891AC908BE
:10CC9000022242EA01402EA103F046FC3046BDE8E4
:10CCA000F08729882068C0F8081500BF94F904208F
:10CCB000AB7810461946002808DB4FEA417C4FEA62
:10CCC0001C68DFF8B0C00CF800800BE04FEA417C34
:10CCD0004FEA1C69DFF8A0C000F00F08A8F10408B3
:10CCE0000CF8089000BF00BF94F904100846002813
:10CCF0000DDB00BF00BF00F01F0301229A40430973
:10CD00009B0003F1E023C3F8002100BF00BF00BF78
:10CD100000BF012061790B4A02EBC1010871607903
:10CD2000114641F8304000260749084A891AC908C7
:10CD3000032242EA014011A103F0F6FB3046AEE7C0
:10CD4000C8230020CC23002020530200D052020030
:10CD500052544320696E7374616E636520616C7216
:10CD60006561647920696E697469616C697A65646A
:10CD70002E00000000E400E018ED00E05254433AB9
:10CD800020696E697469616C697A65642E000000BF
:10CD900010B5014691F90400002807DB00F01F03DD
:10CDA00001229A40024B440943F8242000BF10BDE1
:10CDB00000E200E070B505460C46224602212846F6
:10CDC00000F05CF970BD10B504464FF48271204646
:10CDD00000F0DAF910BD10B504460021206803F018
:10CDE00041FE10BD10B504460421206803F03AFE50
:10CDF00010BD2DE9F84F04468846154699464FF474
:10CE0000803000FA08FA4FF4A07000EB88001FFA97
:10CE100080FB25F07F455146204600F023F920682D
:10CE200003F009FE06464146206803F0F9FD009034
:10CE300032464146206803F0F9FD5946206803F068
:10CE4000FEFD3146009806F0D3FD012806D11020E2
:10CE500004F01CFA5946206803F0F1FD206803F045
:10CE6000EAFD06463146284606F0C2FD0746514611
:10CE7000206803F0EEFD012F0FD16A1C41462068A7
:10CE800003F0D4FD102004F001FA206803F0D3FD74
:10CE9000B04225D00D20BDE8F88F2A4641462068D3
:10CEA00003F0C4FD206803F0C6FD0646681E314647
:10CEB00006F09EFD07466FF07F40A0EB0900B842E8
:10CEC00001D20D20E7E75FB96A1C4146206803F0F4
:10CED000ADFD206803F0AFFDB04201D00D20DAE7D0
:10CEE00001225146204600F0C9F80020D3E7000097
:10CEF0002DE9F84305460E46174698466946104800
:10CF0000006802F0FEF8044614B90420BDE8F88376
:10CF10001C212046FCF7E9FA012020712560C4F8A5
:10CF2000088008480068B6FBF0F0E0606761694679
:10CF30000348006802F00FF905F026FE0020E5E73F
:10CF4000E0490200D449020010B50446D4E90321A7
:10CF5000501828DF10BD0278072A38D2DFE802F027
:10CF600037040712222B340000220A7030E001221D
:10CF70000A7003898B818388CB81C2688A60002311
:10CF80000B7425E002220A7003898B818388CB8190
:10CF9000C2688A60827D062A01D1012300E0002355
:10CFA0000B7415E003220A70C3888B810389CB813F
:10CFB000C2688A600CE004220A70C3888B81002357
:10CFC000CB8100228A6003E005220A7000E000BFE6
:10CFD00000BF704730B587B004460D4620688068B2
:10CFE00008B907B030BD182101A8FCF77EFA0295F8
:10CFF000A0680690207910B1012815D109E0012020
:10D000008DF8040020690390E06804906069059041
:10D010000BE002208DF804000749E06809684843E6
:10D0200003906069059000E000BF00BF2068816840
:10D0300001A8884700BFD4E7D449020070B505466F
:10D04000002409E0064850F8240020B1044850F8B4
:10D05000241028468847641C042CF3D370BD0000BC
:10D06000A830002070B504460D462946206803F01C
:10D07000EDFC2946206803F0EFFC70BD70B5044656
:10D080000E4615463146206803F0E3FC1DB13146DB
:10D09000206803F0E4FC70BDF8B505460C46284650
:10D0A00006F0CEFB05286AD2DFE800F003212A391A
:10D0B0003F00DCB10121284606F0D2FB00200090A1
:10D0C0006846FEF751F92A460126002730463946C0
:10D0D000FCF7DFF92B4AD2E9003218431143294A01
:10D0E00003C29DF80000FEF745F900BF47E00CB110
:10D0F000022000E000200146284606F0B1FB3EE099
:10D1000044B10321284606F0ABFB0121284606F076
:10D11000BAFF03E00121284606F0A2FB2FE01CB96C
:10D120000421284606F09CFB29E024B1032128466F
:10D1300006F096FB22E00021284606F091FB002134
:10D14000284606F0A0FF002000906846FEF70CF984
:10D150002A460126002730463946FCF79AF90A4646
:10D16000C143D043074B0CCB11401840054AC2E9DC
:10D1700000109DF80000FEF7FDF800BF00BF00BFE3
:10D18000F8BD00009023002070B505460C462868C5
:10D19000015929B12146286803F051FC012070BDD6
:10D1A0000020FCE710B50446207830B1012814D0E7
:10D1B000022818D0052822D11BE0606860B9114907
:10D1C000114A891AC908032242EA01400FA103F05B
:10D1D000ABF900201349487012E0606810B90020D4
:10D1E000104948700CE0606810B900200D49487083
:10D1F00006E0606810B900200A49487000E000BFEE
:10D2000000BF10BD40530200D052020046445320DC
:10D21000696E6974207375636365737366756C6C8E
:10D22000792120003C23002038B50E48007810B941
:10D2300048F2016038BD684605F092FB044614B917
:10D2400048F20760F6E706202070684605F098FB74
:10D250000548007810B101200349087305F0A2FCCD
:10D260000020E7E7F82300207C31002070B586B06D
:10D27000142101A8FCF739F92E48007828B101A83B
:10D28000FFF7DCFE002006B070BD2A48001D01F04B
:10D29000ABFF08B10020F6E700F076FB06460EB1C2
:10D2A0003046F0E705F098FB05F054F9054625B146
:10D2B000022D03D0062D0ED103E000BF48F20A6014
:10D2C000E1E701201B4908700020486001A8FFF732
:10D2D000B5FE0020D7E700BF00BF684605F040FB61
:10D2E000044614B948F20760CDE7012020700C2DE8
:10D2F00016D2DFE805F01506150715111512150AE7
:10D300000E0B00BF002020710BE000BF0320207136
:10D3100007E00220207104E000BF0120207100E03E
:10D3200000BF00BF684605F02BFB05F03BFC00206A
:10D33000A9E70000F823002038B5044614B948F2E4
:10D34000046038BD6946204605F0CAFC08B3BDF844
:10D35000000000EB8000114901EB8000C068A8B11B
:10D36000A07A98B1BDF8000000EB800001EB8000CE
:10D37000C068401EBDF8001001EB8101074A02EBB6
:10D380008101C8600020A072002504E048F2056514
:10D3900001E048F209652846D3E700005431002037
:10D3A0007FB514461D462B46224601A9684605F066
:10D3B0002FFC04B070BD0000F8B504460D4604B162
:10D3C00015B948F20460F8BD6946204605F088FCAE
:10D3D000A0B16668BDF8001001EB8101094A02EBBB
:10D3E000810101F10C00012101F005FF2E60606850
:10D3F0000C3068600120A0720020E4E748F2096068
:10D40000E1E700005431002070B504460D4614B920
:10D4100048F2046070BD032300222946204606F02E
:10D42000D3FFF7E770B504460D46022300222946D4
:10D43000204606F0C9FF70BD70B505460948006872
:10D44000042802D148F20B6409E00748054909683D
:10D4500040F821500121034801F0CDFE0024204670
:10D4600070BD000004240020A830002030B585B035
:10D470000020029003900490009001900090019091
:10D480006B4602AA41F20101481EFFF789FF0446DC
:10D49000282229492948FCF70FF8002C29D001201F
:10D4A00027494870274902A8FFF7BCFF044648F205
:10D4B0000660844205D1012021490870002048708F
:10D4C0000CE000BF254635B100BF1FA2BA21284697
:10D4D000FBF776FF00BF00BF06F076FE2449254A21
:10D4E000891AC908032242EA014023A103F01CF86B
:10D4F0001EE0012012494870124902A8FFF784FF7C
:10D50000044648F20660844205D101200C490870A7
:10D51000002048700CE000BF254635B100BF0AA2CC
:10D52000CB212846FBF74CFF00BF00BF06F04CFEA6
:10D53000002005B030BD0000342C0020882C0020D5
:10D540003C230020AC4602002E2E5C2E2E5C617027
:10D55000705C6465766963655F6E616D655C64656A
:10D56000766963655F6E616D655F6F702E63000045
:10D5700040530200D05202007772697465000000C7
:10D5800030B585B000200290039004900090019087
:10D59000009001906B4602AA42F20101481EFFF77B
:10D5A000FFFE044628222E492E48FBF785FF002C5B
:10D5B00029D001202C4948702C4902A8FFF732FFDE
:10D5C000044648F20660844205D1012026490870CD
:10D5D000002048700CE000BF254635B100BF24A2F2
:10D5E000EB212846FBF7ECFE00BF00BF06F0ECFD88
:10D5F00029492A4A891AC908032242EA014028A176
:10D6000002F092FF28E0012017494870174902A84C
:10D61000FFF7FAFE044648F20660844205D1012075
:10D6200011490870002048700CE000BF254635B154
:10D6300000BF0FA2FC212846FBF7C2FE00BF00BFBF
:10D6400006F0C2FD1449154A891AC908032242EAA4
:10D65000014015A102F068FF002005B030BD0000B8
:10D66000602C0020B02C00203C230020B846020093
:10D670002E2E5C2E2E5C6170705C6465766963652D
:10D680005F6E616D655C6465766963655F6E616D33
:10D69000655F6F702E63000040530200D05202009D
:10D6A0007772697465000000666C61736800000041
:10D6B00070B504460D462A460021204600F009F8C0
:10D6C000A068401CA06070BD01468A68C868801AC6
:10D6D000704710B583680B44848823400468E35C7A
:10D6E000137010BDC26883881A4003689954C268D9
:10D6F000521CC260704700003EB504460A4B6A46A1
:10D700000021A01D05F084FA054635B9064A918826
:10D71000019805F05FFB054603E003480021016026
:10D72000416028463EBD00001424002070B588B03A
:10D7300048F2096400200590069007900390049039
:10D740000390049003AB05AA41F20101481EFFF7C4
:10D7500027FE0446002C31D10190029001A905A8B2
:10D76000FFF72AFE044600BF26463EB100BF15A2C1
:10D7700040F217113046FBF723FE00BF00BF029DA9
:10D78000002006E055F82020184941F82020411CCF
:10D79000C8B2019949888142F4DC05A8FFF7CCFDA5
:10D7A000044600BF26463EB100BF06A24FF490716A
:10D7B0003046FBF705FE00BF00BF00BF204608B0A3
:10D7C00070BD00002E2E5C2E2E5C6170705C646556
:10D7D000766963655F6E616D655C646576696365D6
:10D7E0005F6E616D655F6F702E630000342C0020EA
:10D7F00070B588B048F20964002005900690079043
:10D80000039004900390049003AB05AA42F2010137
:10D81000481EFFF7C5FD0446002C31D1019002904F
:10D8200001A905A8FFF7C8FD044600BF26463EB182
:10D8300000BF15A24FF49C713046FBF7C1FD00BF3D
:10D8400000BF029D002006E055F82020184941F84D
:10D850002020411CC8B2019949888142F4DC05A806
:10D86000FFF76AFD044600BF26463EB100BF06A290
:10D8700040F241113046FBF7A3FD00BF00BF00BFDF
:10D88000204608B070BD00002E2E5C2E2E5C61700C
:10D89000705C6465766963655F6E616D655C646527
:10D8A000766963655F6E616D655F6F702E63000002
:10D8B000602C002070B505460E46144624B1314652
:10D8C000284601F074FC03E03146284601F051FC83
:10D8D00070BD30B504461088C01C984201D90C2098
:10D8E00030BD0220158848551088401C108001204A
:10D8F000158848551088401C108015884C55108894
:10D90000401C10800020EBE770B504460D4640F245
:10D910001442115B0122D4F81004FDF7EBFE064619
:10D9200006B1357004F13C0204F5826104F1540043
:10D9300072DF70BD10B54FF4405400F009F8034990
:10D94000086108460069001BC86010BD90240020D3
:10D9500010B540F6F8700068401C18B94FF0102060
:10D96000406902E040F6F870006802464FF08050CF
:10D9700001693023501C08B1104602E001EB410060
:10D9800000010446204610BD10B5FFF7D3FF00226A
:10D990000249034802F05EF810BD0000E4490200AD
:10D9A0009024002010B50446606805F08BF810BD87
:10D9B0007CB5FFF79DF80020009001900C20ADF899
:10D9C00000001920ADF802000020ADF8040032205C
:10D9D000ADF8060068467ADF044600BF254635B13B
:10D9E00000BF04A2C9212846FBF7EAFC00BF00BF24
:10D9F0007CBD00002E2E5C2E2E5C6170705C6D6113
:10DA0000696E2E63000000007047000070B5104979
:10DA1000104801F0CFFC044600BF254635B100BFD9
:10DA20000DA2D6212846FBF7CBFC00BF00BFF72193
:10DA3000084801F0B0FC044600BF254635B100BFE0
:10DA400005A2D9212846FBF7BBFC00BF00BF70BD73
:10DA500009DA0100A82400202E2E5C2E2E5C6170B5
:10DA6000705C6D61696E2E630000000070B5054644
:10DA700015B14FF4064070BD1848007B18B1002066
:10DA80001649087301E000F0DFF814480078082810
:10DA90001DD2DFE800F01C04080C101C141800F064
:10DAA0003FF8044616E000F0BDF8044612E000F02E
:10DAB00099F804460EE000F047F804460AE000F04A
:10DAC00035F9044606E000F043F9044602E048F266
:10DAD0000E6400BF00BF2046CDE700007C3100206F
:10DAE0000D480089401C0C490881002048800873BB
:10DAF00000BF0DE000EB8001084A12F8211009B9BF
:10DB0000012200E0002204490A310A54411C88B273
:10DB10000228EFDB704700007C31002054310020E8
:10DB200010B5084800F036F840B900200549891EB4
:10DB300008704880486041F61D5010BD00F072F832
:10DB4000FBE700007E31002070B50F48458805EBEB
:10DB500085000E4901EB8000C06878B904200A49AD
:10DB6000087005EB8500094A02EB800000230122C2
:10DB70004168074801F0B6FE044602E000F090F864
:10DB80000446204670BD00007C3100205431002046
:10DB90009024002010B501460022002018E00F4B11
:10DBA0001B5C9BB100240D4B1C5400EB80030C4C00
:10DBB00004EB8303DB684BB900EB800304EB8303C6
:10DBC0001B7C012B02D10880012203E0431C98B288
:10DBD0000228E4DB00BF104610BD000086310020A3
:10DBE00054310020F8B50C4844680C4800680B49D3
:10DBF000898800EB81056088C01C86B20320064935
:10DC000008700020B3000090084629464268044886
:10DC100001F0E0FFF8BD00007C3100200C24002062
:10DC20009024002010B507494888091D05F096F892
:10DC300018B1FFF7D7FF044602E0FFF785FF04465F
:10DC4000204610BD7C31002010B51448007808280B
:10DC500020D2DFE800F0041F1F0A1016171BFFF781
:10DC60003FFF01200D49087015E000F07DF802200B
:10DC70000A4908700FE000F029F8062007490870EB
:10DC800009E000BF07200549087004E001200349AE
:10DC9000087000E000BF00BF10BD00007C31002014
:10DCA00010B50520064908700220064988800846FC
:10DCB000002301220168044801F014FE10BD000099
:10DCC0007C3100200C240020902400201449086896
:10DCD0001449498801EB8101134A02EB810149682B
:10DCE0000F4A11600F49498801EB81010E4A02EB8E
:10DCF000810148600A4989880A4A528802EB8202F7
:10DD0000094B03EB820211810221054A9180002117
:10DD1000044A528802EB820203EB820211747047BC
:10DD20000C2400207C3100205431002010B5062046
:10DD300005490870498801EB8101044A02EB810121
:10DD4000486804F0E5FB10BD7C3100205431002010
:10DD500010B50720034908700020486004F0E8FB74
:10DD600010BD00007C310020054A50684288D21C5A
:10DD700091B2044A92880A44024B9A80704700008C
:10DD80007C3100200C24002070B50B48FEF766FFA4
:10DD90000A4B0CCB841843F10005094903C9201A2A
:10DDA00075EB010004D24FF08073E41845F10005D3
:10DDB0002046294670BD000098230020A82300209B
:10DDC000B02300202DE9F04104468846E0B2FEF77A
:10DDD00017FB0546287803F03DFB074668780128C5
:10DDE00000D100E00020784080F001064EB10648E6
:10DDF000D0E90010002359405840014301D105F0FB
:10DE00009DFEBDE8F08100009023002070B504461F
:10DE10000D46204600F01DF8A84201D9022070BD31
:10DE2000A0884FF6FF71884204D0208810B1A06806
:10DE3000401C08B90120F2E70020F0E70246134633
:10DE40008B4204D21868401C08B1012070470020A2
:10DE5000FCE701464A8801F10C0000EB82007047A4
:10DE600010B502F0D3F908B902F0AAFD10BD000008
:10DE700070B504460D4609486060094801F0B4F9E0
:10DE800050B903F08FF8064908741C238C22054909
:10DE90000548006801F021F9002070BDD449020056
:10DEA00094300020F82F0020E04902002DE9F041D5
:10DEB00006460C4648F20E6736B1002043494860DA
:10DEC0004FF40640BDE8F081207930B101280AD036
:10DED000022835D003286DD140E00120207104F0E4
:10DEE00027FB074667E04FF00008002519E005EB27
:10DEF0008500374911F82000022810D1002005EBD9
:10DF00008501334A02F821004FF0010805EB850135
:10DF100002EB8101486804F0FBFA074603E0681C45
:10DF200085B2022DE3DB00BFB8F1000F07D101205D
:10DF3000264908700020486041F61D50C2E73AE0CB
:10DF400000202071022023498880084600230122F6
:10DF50000168214801F0C6FC07462CE00020207132
:10DF60001C49086804F0D4FA07461C48458819483B
:10DF7000D0F8008005EB8500154901EB8000406872
:10DF80001449086005EB8500114901EB8000C0F8D9
:10DF900004801048808805EB85010D4A02EB810161
:10DFA000088102200B498880002005EB850102F8DA
:10DFB000210000E000BF00BF2FB1002003494860EE
:10DFC00048F20D607EE700207CE70000F823002087
:10DFD000543100200C240020902400207C310020AB
:10DFE000024600210CE001EB8100074B33F82000D2
:10DFF000904204D101EB810003EB80007047491C83
:10E000000029F0D00020F9E7682D00202DE9FC5F01
:10E0100083460E4691461F46DDE90C45002E01DA87
:10E02000704200E0304682464FF0010803E09AFB60
:10E03000F9FA08F10108CA45F9DA474500D9B846A6
:10E0400034B1002E03DB05F00400042800D1641E67
:10E0500005F0020000B167B105F0010048B944B114
:10E0600004E0641E20215846FEF76CF90CB1A0456F
:10E07000F7D3002E05DA76422D215846FEF762F9D5
:10E0800007E005F00400042803D12B215846FEF7D1
:10E0900059F905F0020002280DD105F0010050B930
:10E0A0004FB944B104E0641E30215846FEF74AF9E6
:10E0B0000CB1A045F7D33B464A4631465846CDE918
:10E0C000004505F025FFBDE8FC9F30B50246002065
:10E0D0001378C3F38003D3B1137803F00303012B48
:10E0E00002D0022B10D107E01388C3F383139B1CCB
:10E0F0000C6823440B6008E00B680225146805EBEC
:10E10000945423440B6000E000BF00BF012030BDE9
:10E1100001460348007A08B1012070470020FCE75F
:10E12000943000202DE9F0410446A08800EB020C59
:10E13000B4F80480904501DD104600E0A088A8EB0B
:10E140000005E088C618B4F80680984501DD184639
:10E1500000E0E088A8EB00074888B4F8008040455C
:10E1600004DB4888B4F80280404502DD0020BDE8A9
:10E17000F0818888A84202D38888604501D90020B0
:10E18000F5E7C888B84202D3C888B04201D9002058
:10E19000EDE70120EBE7014601F0030008B901209B
:10E1A00070470020FCE70146086808B102680A6071
:10E1B000704710B5044622460121002001F08AFE76
:10E1C000002105E054F8210008B1012010BD491CD0
:10E1D0000029F7D00020F9E710B503F00FF820B9B7
:10E1E00003F032F800200149887010BD142E002081
:10E1F000F721018017214180002101714171704791
:10E2000070B54FF48041002002F060FA044600BF70
:10E2100025463DB100BF05A240F28B312846FBF7F1
:10E22000CFF800BF00BF01F0DDFF70BD2E2E5C2EC9
:10E230002E5C6170705C6D61696E2E630000000081
:10E240002DE9FF4100272E4800F0C7FF2C48001F92
:10E2500000F0C3FF2B48806803902B4805680398A3
:10E26000284028490C3101EB800800BF03A9404633
:10E27000FFF72BFF30B10398284022490C3101EB06
:10E28000800800E000E0F1E700BF00240AE0039806
:10E29000411C284003911B490C3151F820004DF8D6
:10E2A0002400641C022CF2D3009800F00300012823
:10E2B0000DD0022814D1BDF806700421009801EB9E
:10E2C0009050401E039901EB9000039009E0BDF8C7
:10E2D00006700098C0F3831003990844039000E08F
:10E2E00000BF00BF0648001F00F070FF064616B1D1
:10E2F000044903988860384604B0BDE8F081000006
:10E300004837002030330020442400202DE9F0411C
:10E310008AB00746142105A8FBF7E7F8002603207A
:10E3200001F019FE012817D1FE480078642809D1B0
:10E33000FD49FE4A891AC908032242EA0140FCA1AC
:10E3400002F0F2F8F74801780078401CF54A1070A6
:10E350006E2904DDFCF702FC0020F2490870F74842
:10E36000007803F0AFFBFBF76BFB0020FCF760F9D4
:10E3700000B2F3490880F3480078012821D1EA4926
:10E38000EA4A891AC908032242EA0140EE490A789A
:10E39000EEA102F0D3F8022001F001FEEA48007875
:10E3A0005A280EDD0020E7490870FBF789FADE499C
:10E3B000DE4A891AC908032242EA0140E8A102F0B4
:10E3C000B3F8E1480078401CDF490870084600783F
:10E3D0000A2190FBF1F201FB1200002859D1E34819
:10E3E000B0F90000B0F59B7F0ADCE1480078042812
:10E3F00006D1E0480088143000B2DE49088011E000
:10E40000DD48007801280ADCD9480078042806D1C4
:10E41000D8480088401C00B2D649088002E000209D
:10E42000D4490880D348B0F90000B0F5167F11DD5B
:10E430000020D0490880D049087008460078FBF7D2
:10E440006DFF1321CD48008876DFFDF767F80720C0
:10E4500001F05AFDFBF754FEB948B0F90020C84856
:10E460000078C5490978C24B1B78CDE90031CDE968
:10E470000202AD49AD4A891AC908032242EA0140A5
:10E48000C049B1F90030B949B1F90020BEA102F08C
:10E49000A1F8AD480078642802DD0020AA49087080
:10E4A000A94800780A2874D1B3480078002803DD11
:10E4B000C449002003F096F9C248008870B1C148F1
:10E4C000B0F90000A0F2EF1046214843622190FB12
:10E4D000F1F000F5AF7000B2A4490880BA480078A6
:10E4E000F8B9BA480078012805D1A04800880A3850
:10E4F00000B29E4908809D48B0F90000B0F5AF7F9A
:10E5000006DC9A48008818B101209E49088034E052
:10E510009648B0F90000B0F5B27F03DC0A209949B3
:10E5200008802AE09148B0F90000B0F5B57F03DC1F
:10E5300014209449088020E08C48B0F90000B0F520
:10E54000B97F03DA28208F49088016E08748B0F9A0
:10E550000000B0F5BE7F03DA3C208A4908800CE059
:10E560008248B0F90000B0F5C57F03DC5020854932
:10E57000088002E06420834908808248B0F90000E6
:10E580000A2803DC01209249087002E0002090492B
:10E590000870052001F0DFFC38B90F2001F0DBFC2A
:10E5A000012802D1022072490870052001F0D3FC35
:10E5B000012807D10F2001F0CEFC012802D1032051
:10E5C0006B4908700F2001F0C6FC10B9042068499F
:10E5D0000870674800787F490978884230D06448DD
:10E5E0000078022806D10120784908706248007836
:10E5F000FBF794FE5E48007804281DD1754800782A
:10E60000022803D073480078032815D15A480078AF
:10E61000012811DC00206D49087057490870084630
:10E620000078FBF77BFE13215448008876DFFCF767
:10E6300075FF072001F068FC4D48007865490870B7
:10E640004D480078012851DC63480078401C62493D
:10E65000087008460078142848DB47480078FBF724
:10E660005DFE00205C49087041480078022806D011
:10E6700000205649087040480078FBF74FFE3B48A1
:10E68000B0F90000B0F5C87F2BDB394800780228CC
:10E6900027D13648B0F900005049B1F9001088423E
:10E6A00005DC4F480088401C4D49088007E02F4892
:10E6B000B0F90000494908800020494908804848CD
:10E6C0000088B0F5C87F11DD0020404908702A4855
:10E6D0000078FBF723FE0020414908803F4908806D
:10E6E00004E000203E4908803C4908802248007828
:10E6F000022803D02048007803287ED139480078CA
:10E70000401C3849087008460078052806DB1A487E
:10E710000078FBF703FE00203249087014480078A7
:10E72000042862E0C822002040530200D0520200B8
:10E7300042746E205265736574210000102300201E
:10E74000DC220020D8220020D12200204E6F20465B
:10E75000696E642044617461212D256420000000ED
:10E76000496E69742044617461210000DE2200203A
:10E77000CB220020E0220020CA2200201423002007
:10E78000D2220020DA2200205B4164632025645DF0
:10E79000205B4361702025645D205B434847202552
:10E7A000645D205B5379732025645D205B4C6F733F
:10E7B000742025645D205B57656967687420256453
:10E7C0005D20000012230020C9220020CD2200205D
:10E7D000D0220020CC220020CF220020E2220020E4
:10E7E000E4220020D722002007E003D00120FE49C8
:10E7F000087002E00020FC490870FC4800780028FE
:10E8000007DCFB480078002810DDF9480078122862
:10E810000CDAF7480078052802D10220F549087083
:10E820000020F5490870022001F0B9FBF348007898
:10E83000002810DDF148007812280CDAEF48007843
:10E84000052802D10320EB4908700020EA4908702E
:10E85000022001F0A4FBE8480078782805DAE648B1
:10E860000078401CE449087005E06420E249087023
:10E87000022001F049FBE0480078052809DDDD4869
:10E880000078032805D10120DA4908700020DB490F
:10E890000870D6480078012812D1D9480078FBF7D3
:10E8A000F3FAD849D84A891AC908032242EA014032
:10E8B000D3490A78D5A101F041FE0020CB49087068
:10E8C000CA48007802280ED1FAF756FFCD49CE4A41
:10E8D000891AC908032242EA0140D0A101F024FEAE
:10E8E0000020C2490870C2480078002803DDC048F3
:10E8F0000078122807DBC148007800287EDDBF4879
:10E90000007812287EDA11263A208DF81400312082
:10E910008DF8150041208DF816008DF81700342071
:10E920008DF8180030208DF8190034208DF81A0069
:10E9300030208DF81B008DF81C00BB48B0F900009A
:10E94000002802DA0020B8490880B749B1F9002050
:10E95000D11702EB1151C1F30730FBF74FFE8DF8D1
:10E960001D00B149B1F90020D11702EB1151091373
:10E97000A2EB0133D91703EB1161C1F30720FBF7B9
:10E980003DFE8DF81E00A849B1F90020D11702EB19
:10E9900011610912A2EB0123D91703EB1171C1F325
:10E9A0000710FBF72BFE8DF81F009F49B1F90020DF
:10E9B000D11702EB11710911A2EB0111C8B2FBF7DB
:10E9C0001DFE8DF8200030208DF821008DF82200EA
:10E9D0000D208DF823000A208DF82400844800784B
:10E9E000002804DD82480078401C81490870834873
:10E9F0000078002806DD8148007800E002E0401C35
:10EA00007E4908707A480078142803D07B48007843
:10EA100014284BD113263A208DF8140031208DF89C
:10EA2000150041208DF816008DF8170034208DF860
:10EA3000180030208DF8190034208DF81A0030208D
:10EA40008DF81B008DF81C0036208DF81D00352038
:10EA50008DF81E0036208DF81F0035208DF820001F
:10EA60007249B1F90020D11702EB1171C1F30710FF
:10EA7000FBF7C4FD8DF821006C49B1F90020D117D6
:10EA800002EB11710911A2EB0111C8B2FBF7B6FD3F
:10EA90008DF8220031208DF8230035208DF82400D8
:10EAA0000D208DF825000A208DF8260050480078AA
:10EAB00015287CD112263A208DF8140031208DF8CB
:10EAC000150041208DF8160035208DF817003420F0
:10EAD0008DF8180056480088642190FBF1F301FB83
